:020000040800F2
:10000000E007002005020008E9010008EB010008F4
:10001000EF010008F3010008F701000800000000EC
:10002000000000000000000000000000FB010008CC
:10003000FD01000800000000FF01000801020008A7
:100040001B0200081B0200081B0200081B0200081C
:100050001B0200081B0200081B0200081B0200080C
:100060001B0200081B0200081B0200081B020008FC
:100070001B0200081B0200081B0200081B020008EC
:100080001B0200081B0200081B0200081B020008DC
:100090001B0200081B0200081B0200081B020008CC
:1000A0001B0200081B0200081B0200081B020008BC
:1000B0001B0200081B0200081B0200081B020008AC
:1000C0001B0200081B0200081B0200081B0200089C
:1000D0001B020008C10F00081B0200081B020008D9
:1000E0001B0200081B0200081B02000800F002F8B7
:1000F00000F03AF80AA090E8000C82448344AAF188
:100100000107DA4501D100F02FF8AFF2090EBAE885
:100110000F0013F0010F18BFFB1A43F0010318473B
:100120000818000028180000103A24BF78C878C1C9
:10013000FAD8520724BF30C830C144BF04680C60ED
:10014000704700000023002400250026103A28BF35
:1001500078C1FBD8520728BF30C148BF0B60704739
:100160001FB51FBD10B510BD01F098FB1146FFF77C
:10017000F7FF00F009F801F0CAFB03B4FFF7F2FF44
:1001800003BC00F0B7FE000000244FF4165000F04E
:10019000C9FE00F091FF00F043FE01F04FFA0AA003
:1001A00001F06AFA0FE000F0FCFF00F0FAFF441CD7
:1001B00014B100200B4908604FF47A7000F06DFE16
:1001C000012008490860EEE7B2BBC1ACD0F8492F66
:1001D0004FBFDABED8D5F3BCFCC5CCB2E2CAD40D51
:1001E0000A000000B4012242704700BFFEE700BFD2
:1001F000FEE700BFFEE700BFFEE7704770477047AD
:100200007047000008480047FEE7FEE7FEE7FEE70C
:10021000FEE7FEE7FEE7FEE7FEE7FEE703480449E8
:10022000044A054B70470000ED000008E001002083
:10023000E0070020E0030020E003002031490143F3
:10024000314A1160704770B5002100230F22C47835
:1002500004B32D4C246804F4E064C4F5E064210A7E
:10026000C1F10403CA40447804FA03F184781440CD
:1002700021430901254C0678A155047804F01F0597
:100280000124AC4005786D11AD0005F1E025C5F8FD
:10029000004109E0047804F01F050124AC401C4D26
:1002A0000678761145F8264070BD1A4A0A40024386
:1002B000154B1B1F1A60704739B1134A121D126883
:1002C0000243114B1B1D1A6006E00F4A121D1268F3
:1002D00082430D4B1B1D1A607047042808D14FF054
:1002E000E021096941F004014FF0E022116107E0CB
:1002F0004FF0E021096921F004014FF0E022116183
:10030000704700000000FA050CED00E000E400E09A
:1003100080E100E080FFFF1F10B50446CC48844216
:1003200008D10121042000F02DFB0021042000F061
:1003300029FB46E0C748844208D10121082000F08B
:1003400021FB0021082000F01DFB3AE0C248844256
:1003500008D10121102000F015FB0021102000F031
:1003600011FB2EE0BD48844208D10121202000F07D
:1003700009FB0021202000F005FB22E0B848844260
:1003800008D10121402000F0FDFA0021402000F0BA
:10039000F9FA16E0B348844208D10121802000F028
:1003A000F1FA0021802000F0EDFA0AE0AE48844224
:1003B00007D10121801500F0E5FA0021A01500F019
:1003C000E1FA10BD10B50121084600F0DBFA00216A
:1003D000012000F0D7FA10BD2DE9F04102460025BA
:1003E0000026002000230024002791F803C00CF011
:1003F0000F0591F803C00CF0100CBCF1000F03D0F6
:1004000091F802C04CEA050591F800C0BCF1000F5C
:1004100031D0146800202BE04FF0010C0CFA00F3EF
:10042000B1F800C00CEA03069E4220D183004FF0D1
:100430000F0C0CFA03F7BC4305FA03FC4CEA040466
:1004400091F803C0BCF1280F06D14FF0010C0CFA53
:1004500000FCC2F814C00AE091F803C0BCF1480FD8
:1004600005D14FF0010C0CFA00FCC2F810C0401C82
:100470000828D1D31460B1F800C0BCF1FF0F34DDFF
:10048000546800202EE000F1080C4FF0010808FA33
:100490000CF3B1F800C00CEA03069E4221D18300A0
:1004A0004FF00F0C0CFA03F7BC4305FA03FC4CEABF
:1004B000040491F803C0BCF1280F05D100F1080C29
:1004C00008FA0CF8C2F8148091F803C0BCF1480F88
:1004D00007D100F1080C4FF0010808FA0CF8C2F837
:1004E0001080401C0828CED35460BDE8F0814FF640
:1004F000FF710180022181700421C17070470246A2
:10050000002093680B400BB1012000E000207047F1
:100510000146886880B2704702460020D3680B40CD
:100520000BB1012000E0002070470146C86880B28E
:10053000704701617047416170470AB1016100E095
:1005400041617047C16070474FF480320A43826155
:100550008161826182698269704702460020434B53
:1005600018684FF68073184040EA021008433F4B6A
:10057000186070473E49C8617047F0B50A460023CD
:1005800000240021002500F00046B6F1004F02D102
:10059000364EF16901E0354E7168C0F3034583B210
:1005A00000F44016B6F5401F08D121F070612F4EBF
:1005B000766826F070662D4F7E6012E000F480169B
:1005C000B6F5801F06D1032606FA05F4A14341F0D3
:1005D000706106E0460D360103FA06F6B14341F0BC
:1005E000706122B1460D360103FA06F6314300F080
:1005F0000046B6F1004F02D11C4EF16101E01B4EE6
:100600007160F0BD30B500228B071C0F0F2303FA79
:1006100004F2164B08338C1053F824309343134CD8
:1006200008348D1044F8253023468C1053F82430BC
:100630008C07240F00FA04F423430C4C08348D106B
:1006400044F8253030BD0A49DC31086070470000AD
:1006500000080140000C014000100140001401405E
:1006600000180140001C0140002001400000014032
:1006700000002042DF48006840F00100DD490860CA
:1006800008464068DC490840DA4948600846006886
:10069000DA490840D74908600846006820F48020FD
:1006A00008600846406820F4FE0048604FF41F00D0
:1006B00088607047CF49096821F48031CD4A1160C4
:1006C0001146096821F480211160B0F5803F03D004
:1006D000B0F5802F0ED106E0C649096841F480319B
:1006E000C44A116007E0C349096841F4A021C14A26
:1006F000116000E000BF00BF704710B50146002246
:10070000002300204A11012A02D1BA4C236806E0D6
:10071000022A02D1B74C236A01E0B64C636A01F0A9
:100720001F02012494401C400CB1012000E0002075
:1007300010BD38B5002000900024002500BF3120F6
:10074000FFF7DBFF05460098401C00900098B0F5CD
:10075000A06F01D0002DF2D03120FFF7CEFF08B1FD
:10076000012400E00024204638BD01460020A14AB3
:10077000106820F0F80040EAC10010607047A049FE
:1007800008607047024600209A4B586820F47C109D
:1007900042EA01031843974B58607047984908662E
:1007A000704701460020934A506820F00300084338
:1007B000506070478F48406800F00C007047014659
:1007C00000208C4A506820F0F000084350607047C9
:1007D00001460020874A506820F4E06008435060DA
:1007E000704701460020834A506820F4605040EA78
:1007F000C1005060704729B17E4A527A02437D4B56
:100800005A7204E07B4A527A82437A4B5A7270479A
:100810007B49D8310860704701460020754A50680E
:1008200020F440400843506070470021714A203254
:100830001170704A82F82010012802D004280AD1D1
:1008400004E001216B4A2032117005E00521694A5C
:100850002032117000E000BF00BF70476949086096
:1008600070476449096A0143624A116270476549E9
:1008700044390860704730B500210022002400236D
:100880005C4D6D6805F00C0121B1042905D00829E3
:1008900023D105E05C4D056022E05B4D05601FE063
:1008A000544D6D6805F47012524D6D6805F4803436
:1008B000022505EB92421CB9544D554305600BE0EF
:1008C0004C4D6D6805F400351DB1504D5543056024
:1008D00002E04D4D5543056002E04B4D056000BF01
:1008E00000BF444D6D6805F0F0010909484D6B5C8F
:1008F0000568DD4045603F4D6D6805F4E061090A1B
:10090000434D6B5C4568DD4085603A4D6D6805F48C
:100910006051C90A3E4D6B5C4568DD40C560354D90
:100920006D6805F44041890B3A4D6B5CC568B5FBB9
:10093000F3F5056130BD29B12E4A526902432D4BB2
:100940005A6104E02B4A526982432A4B5A6170472C
:1009500029B1284A92690243264B9A6104E0254A4C
:1009600092698243234B9A61704729B1214AD26927
:100970000243204BDA6104E01E4AD26982431D4BD8
:10098000DA61704729B11B4AD2680243194BDA6019
:1009900004E0184AD2688243164BDA60704729B1E6
:1009A000144A12690243134B1A6104E0114A126996
:1009B0008243104B1A6170471249403908607047F2
:1009C0000F49C86470470B49C87170470948406AAD
:1009D00040F0807007494862704701460020054A90
:1009E00092680A400AB1012000E0002070470149E6
:1009F00088727047001002400000FFF8FFFFF6FE0B
:100A0000000042428004424200127A0000093D0088
:100A1000140000202400002010B50446FB48844246
:100A200009D101218803FFF7ADFF00214FF4804079
:100A3000FFF7A8FF32E0F648844209D101214804BB
:100A4000FFF7ADFF00214FF40030FFF7A8FF25E0CE
:100A5000F048844209D101218804FFF7A0FF00215A
:100A60004FF48020FFF79BFF18E0EB48844209D148
:100A70000121C804FFF793FF00214FF40020FFF786
:100A80008EFF0BE0E548844208D101210805FFF7FD
:100A900086FF00214FF48010FFF781FF10BD2DE984
:100AA000F04786B005460E460024A24600BFA14688
:100AB0000027B08900B100BF2F462C8A4CF6FF708A
:100AC0000440F08804432C82AC894EF6F3100440B5
:100AD000B08831890843718908430443AC81AC8AEA
:100AE0004FF6FF400440B0890443AC8201A8FFF7F1
:100AF000C2FEC648874202D1DDF810A001E0DDF851
:100B00000CA0A88900F4004040B10AEBCA0000EB39
:100B10000A1031684900B0FBF1F807E00AEBCA009F
:100B200000EB0A1031688900B0FBF1F86420B8FBD3
:100B3000F0F004012009642101FB1089A88900F468
:100B4000004040B1322000EBC900B0FBF1F000F0F2
:100B50000700044308E0322000EB09106421B0FBD9
:100B6000F1F000F00F0004432C8106B0BDE8F087DF
:100B70004FF41651016000218180C18001810C2158
:100B8000418100218181704710B502460020108A02
:100B90004FF2FF0318400B884C8823438C88234373
:100BA000CC8823431843108210BD0021018041806E
:100BB0008180C180704721B1828942F400528281D4
:100BC00004E082894DF6FF731A4082817047F0B5C8
:100BD0000346002400260025002040F66A17B9428B
:100BE00000D100BF1846C1F3421401F01F060127CF
:100BF00007FA06F5012C01D10C3004E0022C01D1DA
:100C0000103000E014301AB107682F43076002E08B
:100C10000768AF430760F0BD1AB1838A0B43838234
:100C200002E0838A8B4383827047028A4FF6F07317
:100C30001A400282028A0A430282704782894FF276
:100C4000FF731A40828182890A438281704721B1F1
:100C5000828942F00202828104E082894FF6FD73AC
:100C60001A4082817047028A4FF6DF731A4002826F
:100C7000028A0A430282704721B1028A42F480420A
:100C8000028204E0028A4BF6FF731A400282704728
:100C9000C1F308028280704701468888C0F30800CB
:100CA0007047818941F0010181817047028BD2B286
:100CB0000283028B42EA012202837047028B02F414
:100CC0007F420283028B0A430283704721B1828AEA
:100CD00042F02002828204E0828A4FF6DF731A40DB
:100CE0008282704721B1828A42F01002828204E03F
:100CF000828A4FF6EF731A408282704721B1828A4E
:100D000042F00802828204E0828A4FF6F7731A40AA
:100D10008282704721B1828942F40042828103E0DD
:100D20008289C2F30E028281704721B1828A42F425
:100D30000062828204E0828A4FF2FF731A4082824C
:100D40007047828A4FF6FB731A408282828A0A4376
:100D50008282704721B1828A42F00202828204E0DC
:100D6000828A4FF6FD731A40828270470246002045
:100D7000B1F5007F00D100BF13880B400BB10120FB
:100D800000E00020704701F40072B2F5007F00D14E
:100D900000BFCA430280704770B50246002400239A
:100DA0000025002040F66A16B14200D100BFC1F311
:100DB000421501F01F03012606FA03F3012D02D1AB
:100DC0009689334006E0022D02D1168A334001E0B5
:100DD000968A33400C12012606FA04F41688344031
:100DE00013B10CB1012000E0002070BD10B500224D
:100DF000002340F66A14A14200D100BF0A12012468
:100E00009440A3B2DC43048010BD000000380140D0
:100E10000044004000480040004C004000500040AA
:100E200010B56FF00400FFF758FA2E4800682E49FD
:100E3000B0FBF1F02D4908700846007800EB400146
:100E4000C1EBC0104FF6FF7101EAC00028490880CD
:100E500010BD0146254A12784A434FF0E0235A61FB
:100E600000229A611A46126942F001021A6100BF1B
:100E70004FF0E022106900F001021AB100F4803254
:100E8000002AF5D04FF0E022126922F001024FF063
:100E9000E0231A6100229A6170470146144A1288C1
:100EA0004A434FF0E0235A6100229A611A461269C0
:100EB00042F001021A6100BF4FF0E022106900F019
:100EC00001021AB100F48032002AF5D04FF0E0227E
:100ED000126922F001024FF0E0231A6100229A61A8
:100EE000704700000000002000127A002800002057
:100EF0002A000020014600BF704700BF694A1288DF
:100F000002F04002002AF9D0C2B2664B1B1D1A80C3
:100F1000704710B5C821644800F011FC00206349F7
:100F2000088010BD10B586B00446012144F20400CB
:100F3000FFF70EFD4FF40070ADF8140003208DF89C
:100F4000160018208DF8170005A95948FFF744FA34
:100F50004FF48060ADF8140004208DF8170005A947
:100F60005348FFF739FA25208DF8000003208DF84B
:100F700001008DF8020001208DF803006846FFF79C
:100F800062F901940020ADF80800ADF80A00ADF850
:100F90000C00ADF810000C20ADF80E0001A941487E
:100FA000FFF77DFD012240F225513E48FFF70FFE7D
:100FB00001213C48FFF7FFFDFFF7ABFF06B010BD76
:100FC00010B540F225513748FFF7E6FE002839D02A
:100FD0003448FFF761FEC4B2242C02D1002033490B
:100FE0000880324801880088401C304A10802E4812
:100FF0004454007824281ED12B4800794D281AD15A
:1010000029484079432816D10A2C14D15021294867
:1010100000F095FB254802882349264800F04AFB4A
:101020000120244981F85000002020490880C8216F
:101030001D4800F084FB1D480088C82802DBC8203A
:101040001A49088010BD10B504462146164800F024
:101050001FFB08B1012010BD0020FCE710B50020E7
:10106000144981F8500081F8510081F8780050212E
:10107000104800F064FB0F485230002101604160CD
:10108000018181720B3001604160018181725D38A4
:10109000A0F868106A300160416081606A38A0F889
:1010A000761010BD00380140B50000202E00002051
:1010B000000801403C00002008B501210D20FFF789
:1010C00047FC0121FE48FFF758FA4FF40060ADF8E5
:1010D000000010208DF8030003208DF802006946FF
:1010E000F848FFF779F94FF48050ADF80000102070
:1010F0008DF8030003208DF802006946F148FFF7E0
:101100006BF94FF40040ADF8000010208DF803009B
:1011100003208DF802006946EA48FFF75DF91020C8
:101120008DF8030003208DF802000820ADF80000C0
:101130006946E548FFF750F91020ADF80000282077
:101140008DF8030003208DF802006946DE48FFF7A2
:1011500043F92020ADF8000028208DF8030003207B
:101160008DF802006946D848FFF736F94020ADF8FF
:10117000000028208DF8030003208DF80200694646
:10118000D148FFF729F928208DF8030003208DF8B6
:1011900002008020ADF800006946CB48FFF71CF93B
:1011A00008BD70B54FF40061C648FFF7C2F94FF4AF
:1011B0008051C448FFF7BDF94FF40041C148FFF723
:1011C000B8F90821C048FFF7B4F91021BE48FFF76D
:1011D00096F905462021BC48FFF791F905434021C7
:1011E000B948FFF78CF905438021B748FFF787F925
:1011F000054315B94FF0FF3070BD0A20FFF74DFED3
:101200001021B148FFF77BF905462021AE48FFF7D2
:1012100076F905434021AC48FFF771F90543802179
:10122000A948FFF76CF9054315B94FF0FF30E3E724
:101230004FF40061A348FFF77EF94FF48051A148B5
:10124000FFF779F94FF400419E48FFF774F9082140
:101250009D48FFF76EF910219B48FFF750F99B4915
:10126000087020219848FFF74AF9994908704021F1
:101270009548FFF744F99749087080219248FFF795
:101280003EF99549087091480078012809D19048A5
:10129000007830B98F48007818B90846007800B94E
:1012A0000C248A48007850B989480078012806D172
:1012B0008848007818B98848007800B90D24834818
:1012C000007850B98248007838B98248007820B94F
:1012D00081480078012800D10E247C48007850B95C
:1012E0007B48007838B97B480078012803D17A48D8
:1012F000007800B90F2400BF10217348FFF7FFF8F2
:10130000054620217048FFF7FAF8054340216E4852
:10131000FFF7F5F8054380216B48FFF7F0F8054328
:10132000002DE9DC4FF400616648FFF702F94FF445
:1013300080516448FFF7FFF84FF400416148FFF720
:10134000FAF808216048FFF7F6F810215E48FFF729
:10135000D6F85E49087020215B48FFF7D0F85C4959
:10136000087040215848FFF7CAF85A490870802190
:101370005548FFF7C4F858490870544800780128C8
:1013800009D15348007830B95248007818B9084656
:10139000007800B900244D48007850B94C480078D6
:1013A000012806D14B48007818B94B48007800B99D
:1013B00001244648007850B94548007838B9454876
:1013C0000078012803D14448007800B902243F483E
:1013D000007850B93E48007838B93E48007820B9C6
:1013E0003D480078012800D1032400BF1021364871
:1013F000FFF785F8054620213348FFF780F80543BD
:1014000040213148FFF77BF8054380212E48FFF744
:1014100076F80543002DE9DC4FF400612948FFF719
:101420008AF84FF480512748FFF783F84FF40041C2
:101430002448FFF780F808212348FFF77CF81021A3
:101440002148FFF75CF82149087020211E48FFF76A
:1014500056F81F49087040211B48FFF750F81D49F6
:10146000087080211848FFF74AF81B490870174890
:101470000078012809D11648007830B9154800785D
:1014800018B90846007800B904241048007850B90B
:101490000F480078012806D10E48007818B90E4888
:1014A000007800B9052409480078C8B908480078D0
:1014B000B0B908480078012812D1074800780DE03B
:1014C0000002300000080140000C014036000020FE
:1014D00037000020380000203900002000B9062421
:1014E0005048007850B95048007838B94F480078D3
:1014F00020B94F480078012800D1072400BF1021EF
:101500004C48FEF7FCFF054620214A48FEF7F7FF4E
:10151000054340214748FEF7F2FF05438021454837
:10152000FEF7EDFF0543002DE9DC4FF40061424872
:10153000FFF701F84FF480513F48FEF7FCFF4FF4EE
:1015400000413D48FEF7F5FF08213A48FEF7F3FF5A
:1015500010213848FEF7D3FF324908702021354862
:10156000FEF7CDFF3049087040213248FEF7C7FF33
:101570002E49087080212F48FEF7C1FF2C490870C2
:1015800028480078012809D12748007830B9274831
:10159000007818B90846007800B908242148007876
:1015A00050B921480078012806D12048007818B9A0
:1015B0001F48007800B909241A48007850B91A4821
:1015C000007838B919480078012803D11848007804
:1015D00000B90A241348007850B91348007838B984
:1015E0001248007820B912480078012800D10B2455
:1015F00000BF10210F48FEF782FF054620210D484D
:10160000FEF77DFF054340210A48FEF778FF0543BA
:1016100080210848FEF773FF0543002DE9DC2046D2
:10162000EAE50000360000203700002038000020E6
:1016300039000020000C01400008014008B50121DC
:101640001020FFF785F94FF40050ADF8000010208E
:101650008DF8030003208DF8020069460448FEF768
:10166000BBFE4FF400510248FEF763FF08BD0000C7
:1016700000100140704700000FB4044910B503AAE0
:10168000029800F083F810BC5DF814FB30000020D5
:1016900030B505460B462A4613F8014B12F8010BEC
:1016A00008B1A042F8D01CB1002802D06D1CF1E7AF
:1016B000284630BD032A40F2308010F0030C00F0C1
:1016C000158011F8013BBCF1020F624498BF11F87C
:1016D00001CB00F8013B38BF11F8013BA2F1040235
:1016E00098BF00F801CB38BF00F8013B11F00303AD
:1016F00000F05E80083AC0F0088051F8043B083AD8
:1017000051F804CBA0E80810F5E7121D5CBF51F8B2
:10171000043B40F8043BAFF30080D20724BF11F82C
:10172000013B11F801CB48BF11F8012B24BF00F891
:10173000013B00F801CB48BF00F8012B70474FF088
:1017400000020429C0F0128010F0030C00F0648045
:10175000CCF1040CBCF1020F18BF00F8012BA8BF9C
:1017600020F8022BA1EB0C0100F056B85FEAC17C17
:1017700024BF00F8012B00F8012B48BF00F8012B13
:10178000704770477047704770470000074B70B54F
:101790000D467B4400F06BF80446284600F07AF8CA
:1017A00010B14FF0FF3070BD204670BD65F7FFFFF0
:1017B00010B5203AC0F00B80B1E81850203AA0E8EC
:1017C0001850B1E81850A0E81850BFF4F5AF5FEA20
:1017D000027C24BFB1E81850A0E8185044BF18C9D3
:1017E00018C0BDE810405FEA827C24BF51F8043B7A
:1017F00040F8043B08BF7047D20728BF31F8023BCE
:1018000048BF11F8012B28BF20F8023B48BF00F861
:10181000012B70474FF0000200B5134694469646E0
:10182000203922BFA0E80C50A0E80C50B1F12001F3
:10183000BFF4F7AF090728BFA0E80C5048BF0CC0A1
:101840005DF804EB890028BF40F8042B08BF7047FF
:1018500048BF20F8022B11F0804F18BF00F8012B71
:101860007047000001694A1C02610878704700B5A2
:101870008FB0CDE901310021059105497944CDE9C9
:1018800003101146684600F02EF80FB000BD0000AE
:10189000E5FFFFFF007B00F080007047754600F019
:1018A0003FF8AE4605006946534620F007008546DE
:1018B00018B020B5FEF7B2FCBDE820404FF000069E
:1018C0004FF000074FF000084FF0000B21F0070128
:1018D000AC46ACE8C009ACE8C009ACE8C009ACE86B
:1018E000C0098D4670472DE9F04106460024D6E92F
:1018F0000170F5688046304603E04146B847641CF5
:101900003046A8470028F8D12046BDE8F08110B540
:101910000446AFF300802046BDE81040FEF72DBC22
:10192000004870478001002048190008000000208E
:101930003C00000028010008841900083C00002039
:10194000A40700004401000800A24A0400000000AF
:10195000000000000102030406070809000000005F
:101960000102030401020304060708090204060831
:101970000000000000000000000000000000000067
:041980000000000063
:04000005080000ED02
:00000001FF
