:020000040800F2
:10000000600C0020A1030008850300088703000896
:100010008B0300088F030008930300080000000012
:10002000000000000000000000000000970300082E
:1000300099030008000000009B0300089D030008CE
:10004000B7030008B7030008B7030008B7030008A8
:10005000B7030008B7030008B7030008E52D000840
:100060004B2F0008C330000829320008B7030008EE
:10007000B7030008B7030008B7030008B703000878
:10008000B7030008B7030008B7030008B703000868
:10009000B7030008B7030008B7030008B703000858
:1000A000B7030008B7030008B7030008B703000848
:1000B000B703000837360008B7030008B703000885
:1000C000B7030008B7030008B7030008B703000828
:1000D000B7030008E5240008B7030008B7030008C9
:1000E000B7030008B7030008B703000800F002F8E0
:1000F00000F05CF80AA090E8000C82448344AAF166
:100100000107DA4501D100F051F8AFF2090EBAE863
:100110000F0013F0010F18BFFB1A43F0010318473B
:1001200064400000844000000A444FF0000C10F8C6
:10013000013B13F0070408BF10F8014B1D1108BF65
:1001400010F8015B641E05D010F8016B641E01F805
:10015000016BF9D113F0080F1EBF10F8014BAD1C55
:100160000C1B09D16D1E58BF01F801CBFAD505E073
:1001700014F8016B01F8016B6D1EF9D59142D6D3CD
:10018000704700000023002400250026103A28BFF5
:1001900078C1FBD8520728BF30C148BF0B607047F9
:1001A0001FB503F0D2FA1FBD10B510BD03F0ACFBB4
:1001B0001146FFF7F5FF00F023F803F0CAFB03B484
:1001C000FFF7F2FF03BC02F027F900000B49D1F85A
:1001D00000C04A685CF8043B1068184442F8040BFD
:1001E0008C4528BFA1F1DC0C8A4228BFA1F1DC02BA
:1001F000C1F800C04A6020F000407047F4050020BC
:1002000008B502F09FF84FF4A06000F0E5F84FF455
:10021000E13002F019F903F0C1F802F03BFC02F002
:10022000CFFA02F074FD03F039F903F0AFF941F6AB
:100230001F4140F2E14003F0D1F911204549086027
:1002400003F0FCF885E000221146104602F0AFFBF7
:1002500000221146102002F0AAFB012200212020DA
:1002600002F0A5FB02220021302002F0A0FB0322B5
:100270000021402002F09BFB04220021502002F0CC
:1002800096FB05220021602002F091FB062200214E
:10029000702002F08CFB2F480068401E2E49096830
:1002A000884223D100240DE000202C490860C8209A
:1002B00002F061F801202A49C1F8A001C82002F02B
:1002C0005AF8641C142CEFDB002024492039086004
:1002D000322002F074F801202149C1F88001214840
:1002E0000068401C1F49086003F0A8F8322002F0A3
:1002F00066F807231CA20221002002F03BFB082025
:1003000003460090174802210268322002F0EEFAFC
:100310000A2317A20421002002F02CFB0A200090DF
:1003200015480068C0F11E020A230421282002F0AB
:10033000DDFA052311A20621002002F01BFB082094
:10034000009004480068421E08230621322002F073
:10035000CDFA78E7B8030020BC030020A081214239
:1003600000802142C803002073636F72653A000069
:1003700074696D653A000000D00300204B45593A7E
:1003800000000000704700BFFEE700BFFEE700BFAF
:10039000FEE700BFFEE770477047704770470000F8
:1003A00008480047FEE7FEE7FEE7FEE7FEE7FEE758
:1003B000FEE7FEE7FEE7FEE703480449044A054B73
:1003C00070470000ED00000860060020600C00206F
:1003D000600800206008002031490143314A116063
:1003E000704770B5002100230F22C47804B32D4C50
:1003F000246804F4E064C4F5E064210AC1F1040354
:10040000CA40447804FA03F1847814402143090176
:10041000254C0678A155047804F01F050124AC4052
:1004200005786D11AD0005F1E025C5F8004109E042
:10043000047804F01F050124AC401C4D06787611A9
:1004400045F8264070BD1A4A0A400243154B1B1F4F
:100450001A60704739B1134A121D12680243114BDA
:100460001B1D1A6006E00F4A121D126882430D4BD5
:100470001B1D1A607047042808D14FF0E02109695C
:1004800041F004014FF0E022116107E04FF0E0215C
:10049000096921F004014FF0E0221161704700006A
:1004A0000000FA050CED00E000E400E080E100E06F
:1004B00080FFFF1F10B50446FA48844208D101218D
:1004C000401500F0E3FD0021601500F0DFFD17E0AE
:1004D000F548844208D10121001500F0D7FD002124
:1004E000201500F0D3FD0BE0F048844208D1012133
:1004F000C80300F0CBFD00214FF4004000F0C6FD22
:1005000010BD30B50246002000235068E84C204062
:100510000D790C6844EA0524204350609068E54C4E
:100520002040D1E902542C434D7944EA450420434C
:100530009060D06A20F470000C7C641EE4B2234307
:1005400040EA0350D06230BD002101600171417169
:100550008160C16001210174704721B1826842F05D
:100560000102826003E0826822F00102826070472B
:1005700021B1826842F48072826003E0826822F4D2
:1005800080728260704710B50023CBB21AB1446804
:100590001C43446002E044689C43446010BD816891
:1005A00041F0080181607047014600208A6802F02E
:1005B00008020AB1012000E000207047816841F084
:1005C000040181607047014600208A6802F004023D
:1005D0000AB1012000E00020704721B1826842F496
:1005E000A002826003E0826822F4A0028260704769
:1005F000014600208A6802F480020AB1012000E06E
:100600000020704710B50A4600210023416821F4FC
:100610006041531E41EA4331416010BD21B142683F
:1006200042F40062426003E0426822F400624260E9
:100630007047F0B504460D4600200021092D11DD5C
:10064000E068A5F10A0606EB4607072606FA07F159
:100650008843A5F10A0606EB460603FA06F10843AD
:10066000E0600CE0206905EB4507072606FA07F174
:10067000884305EB450603FA06F108432061072A83
:100680000FDA606B561E06EB86071F2606FA07F187
:100690008843561E06EB860605FA06F1084360639A
:1006A00022E00D2A0FDA206BD61F06EB86071F26E5
:1006B00006FA07F18843D61F06EB860605FA06F10F
:1006C0000843206310E0E06AA2F10D0606EB8607FE
:1006D0001F2606FA07F18843A2F10D0606EB8606EF
:1006E00005FA06F10843E062F0BD21B1826842F4E8
:1006F0008012826003E0826822F480128260704778
:100700000146C86C80B2704766484C30006870473C
:1007100021B1426842F48062426003E0426822F400
:1007200080624260704721B1426842F48052426068
:1007300003E0426822F48052426070470A4600217A
:10074000816821F4E04111438160704721B18268E2
:1007500042F40042826003E0826822F40042826038
:10076000704721B1826842F40212826003E082681D
:1007700022F4021282607047014600208A6802F467
:1007800000120AB1012000E000207047F0B50446D5
:100790001546002000220026092911DDE068A1F19C
:1007A0000A0707EB470C072707FA0CF29043A1F161
:1007B0000A0707EB470703FA07F21043E0600CE073
:1007C000206901EB410C072707FA0CF2904301EB7B
:1007D000410703FA07F210432061A06BC0F30156F2
:1007E000EF1C06F1010CA7EB0C0707EB870C1F278A
:1007F00007FA0CF29043EF1C06F1010CA7EB0C0773
:1008000007EB870701FA07F21043A063F0BD10B5AC
:100810000A4600210023816B21F44011531E41EA56
:100820000351816310BD08B5002300930090009B25
:100830000B440093009B1A6008BD08B502460020D7
:100840000090009201F12800009B1844009000984D
:10085000006880B208BD0A4600214168164B194065
:100860001143416070474162826270470A4600212D
:10087000416821F01F0111434160704740B10949AF
:100880000831096841F40001064A0832116007E0A6
:1008900004490831096821F40001024A0832116054
:1008A000704700000024014000280140003C014046
:1008B000FFFEF0FFFDF7F1FFFFFD3FFF02460020C6
:1008C00013680B400BB1012000E000207047CA43C1
:1008D0000260704770B502460020002300240B120E
:1008E0005568CEB205EA060415681D4015B10CB175
:1008F000012000E0002070BD00220A12D3430360F3
:1009000070470000002044490860091D0860091D67
:100910000860091D086041483F491431086070476C
:1009200000213D498279002A3AD00A4612680368BC
:100930009A430B461A600A1D126803689A430B1DFE
:100940001A60027911440A6803681A430A60324A3D
:100950000832126803689A432F4B08331A601A1D35
:10096000126803689A432C4B0C331A604279102AA0
:100970000ED11A1F126803681A43274B08331A60F6
:100980001A1D126803681A43234B0C331A600DE0DA
:100990002149427911440A6803681A430A6005E054
:1009A000027911440A6803689A430A60704700217B
:1009B000016001710C21417100218171704716495C
:1009C000103109680143144A103211607047014622
:1009D0000020114A143212680A400AB1012000E0D6
:1009E000002070470C491431086070470146002010
:1009F0000022094B1B6803EA0102074B14331B68F2
:100A00000B4013B10AB1012000E0002070470249F9
:100A1000143108607047000000040140FFFF0F0020
:100A200010B50446CC48844208D10121042000F0CE
:100A30002DFB0021042000F029FB46E0C74884423A
:100A400008D10121082000F021FB0021082000F03E
:100A50001DFB3AE0C248844208D10121102000F079
:100A600015FB0021102000F011FB2EE0BD48844250
:100A700008D10121202000F009FB0021202000F0F6
:100A800005FB22E0B848844208D10121402000F053
:100A9000FDFA0021402000F0F9FA16E0B348844244
:100AA00008D10121802000F0F1FA0021802000F01F
:100AB000EDFA0AE0AE48844207D10121801500F02A
:100AC000E5FA0021A01500F0E1FA10BD10B50121F2
:100AD000084600F0DBFA0021012000F0D7FA10BD33
:100AE0002DE9F041024600250026002000230024C5
:100AF000002791F803C00CF00F0591F803C00CF02B
:100B0000100CBCF1000F03D091F802C04CEA0505AF
:100B100091F800C0BCF1000F31D0146800202BE028
:100B20004FF0010C0CFA00F3B1F800C00CEA030618
:100B30009E4220D183004FF00F0C0CFA03F7BC4308
:100B400005FA03FC4CEA040491F803C0BCF1280F39
:100B500006D14FF0010C0CFA00FCC2F814C00AE0F8
:100B600091F803C0BCF1480F05D14FF0010C0CFA0D
:100B700000FCC2F810C0401C0828D1D31460B1F8A2
:100B800000C0BCF1FF0F34DD546800202EE000F1FE
:100B9000080C4FF0010808FA0CF3B1F800C00CEA99
:100BA00003069E4221D183004FF00F0C0CFA03F78D
:100BB000BC4305FA03FC4CEA040491F803C0BCF101
:100BC000280F05D100F1080C08FA0CF8C2F81480BF
:100BD00091F803C0BCF1480F07D100F1080C4FF0A9
:100BE000010808FA0CF8C2F81080401C0828CED37F
:100BF0005460BDE8F0814FF6FF71018002218170E1
:100C00000421C17070470246002093680B400BB16D
:100C1000012000E0002070470146886880B27047DC
:100C200002460020D3680B400BB1012000E00020F9
:100C300070470146C86880B27047016170474161E2
:100C400070470AB1016100E041617047C1607047BF
:100C50004FF480320A4382618161826182698269D4
:100C6000704702460020434B18684FF680731840C7
:100C700040EA021008433F4B186070473E49C86184
:100C80007047F0B50A46002300240021002500F03B
:100C90000046B6F1004F02D1364EF16901E0354E03
:100CA0007168C0F3034583B200F44016B6F5401FE7
:100CB00008D121F070612F4E766826F070662D4FB6
:100CC0007E6012E000F48016B6F5801F06D1032680
:100CD00006FA05F4A14341F0706106E0460D3601C5
:100CE00003FA06F6B14341F0706122B1460D3601B8
:100CF00003FA06F6314300F00046B6F1004F02D188
:100D00001C4EF16101E01B4E7160F0BD30B5002258
:100D10008B071C0F0F2303FA04F2164B08338C10B9
:100D200053F824309343134C08348D1044F8253085
:100D300023468C1053F824308C07240F00FA04F457
:100D400023430C4C08348D1044F8253030BD0A493B
:100D5000DC3108607047000000080140000C0140D1
:100D6000001001400014014000180140001C014027
:100D7000002001400000014000002042DF480068E0
:100D800040F00100DD49086008464068DC49084041
:100D9000DA49486008460068DA490840D7490860DF
:100DA0000846006820F4802008600846406820F467
:100DB000FE0048604FF41F0088607047CF49096803
:100DC00021F48031CD4A11601146096821F4802157
:100DD0001160B0F5803F03D0B0F5802F0ED106E052
:100DE000C649096841F48031C44A116007E0C3492B
:100DF000096841F4A021C14A116000E000BF00BFB2
:100E0000704710B501460022002300204A11012A34
:100E100002D1BA4C236806E0022A02D1B74C236AF9
:100E200001E0B64C636A01F01F02012494401C40AB
:100E30000CB1012000E0002010BD38B5002000906A
:100E40000024002500BF3120FFF7DBFF0546009896
:100E5000401C00900098B0F5A06F01D0002DF2D09A
:100E60003120FFF7CEFF08B1012400E00024204626
:100E700038BD01460020A14A106820F0F80040EA81
:100E8000C10010607047A04908607047024600200A
:100E90009A4B586820F47C1042EA01031843974BA0
:100EA0005860704798490866704701460020934A89
:100EB000506820F003000843506070478F48406836
:100EC00000F00C007047014600208C4A506820F06A
:100ED000F00008435060704701460020874A506880
:100EE00020F4E06008435060704701460020834AC8
:100EF000506820F4605040EAC1005060704729B14A
:100F00007E4A527A02437D4B5A7204E07B4A527AFF
:100F100082437A4B5A7270477B49D83108607047D8
:100F200001460020754A506820F440400843506054
:100F300070470021714A20321170704A82F82010E7
:100F4000012802D004280AD104E001216B4A203292
:100F5000117005E00521694A2032117000E000BFE0
:100F600000BF70476949086070476449096A0143D6
:100F7000624A11627047654944390860704730B56C
:100F800000210022002400235C4D6D6805F00C0157
:100F900021B1042905D0082923D105E05C4D056065
:100FA00022E05B4D05601FE0544D6D6805F4701242
:100FB000524D6D6805F48034022505EB92421CB950
:100FC000544D554305600BE04C4D6D6805F40035FC
:100FD0001DB1504D5543056002E04D4D5543056030
:100FE00002E04B4D056000BF00BF444D6D6805F049
:100FF000F0010909484D6B5C0568DD4045603F4DD7
:101000006D6805F4E061090A434D6B5C4568DD409D
:1010100085603A4D6D6805F46051C90A3E4D6B5CC0
:101020004568DD40C560354D6D6805F44041890B6C
:101030003A4D6B5CC568B5FBF3F5056130BD29B170
:101040002E4A526902432D4B5A6104E02B4A5269E1
:1010500082432A4B5A61704729B1284A9269024358
:10106000264B9A6104E0254A92698243234B9A6198
:10107000704729B1214AD2690243204BDA6104E06A
:101080001E4AD26982431D4BDA61704729B11B4A5F
:10109000D2680243194BDA6004E0184AD2688243EE
:1010A000164BDA60704729B1144A12690243134B98
:1010B0001A6104E0114A12698243104B1A617047A9
:1010C00012494039086070470F49C86470470B499E
:1010D000C87170470948406A40F08070074948620B
:1010E000704701460020054A92680A400AB1012073
:1010F00000E00020704701498872704700100240EC
:101100000000FFF8FFFFF6FE00004242800442426A
:1011100000127A0000093D00140000202400002085
:1011200010B50446FE48844208D10121C014FFF7DF
:10113000ADFF0021E014FFF7A9FFC4E0B4F1804F38
:1011400008D101210846FFF7AEFF00210120FFF77B
:10115000AAFFB8E0F348844208D101210220FFF73A
:10116000A2FF00210220FFF79EFFACE0EE48844280
:1011700008D101210420FFF796FF00210420FFF78A
:1011800092FFA0E0E948844208D101210820FFF73E
:101190008AFF00210820FFF786FF94E0E44884429C
:1011A00008D101211020FFF77EFF00211020FFF75A
:1011B0007AFF88E0DF48844208D101212020FFF730
:1011C00072FF00212020FFF76EFF7CE0DA488442A6
:1011D00008D101214014FFF759FF00216014FFF7E7
:1011E00055FF70E0D548844209D10121C804FFF7BA
:1011F0004DFF00214FF40020FFF748FF63E0D04887
:10120000844209D101210805FFF740FF00214FF476
:101210008010FFF73BFF56E0CA48844209D1012104
:101220004805FFF733FF00214FF40010FFF72EFFB2
:1012300049E0C548844208D101214020FFF733FF2F
:1012400000214020FFF72FFF3DE0C048844208D135
:1012500001218020FFF727FF00218020FFF723FFD7
:1012600031E0BB48844208D101218015FFF71BFF04
:101270000021A015FFF717FF25E0B648844209D1E9
:1012800001210804FFF702FF00214FF48030FFF72F
:10129000FDFE18E0B048844209D101214804FFF75F
:1012A000F5FE00214FF40030FFF7F0FE0BE0AB48F5
:1012B000844208D101218804FFF7E8FE00214FF4A1
:1012C0008020FFF7E3FE10BD00220288944B984275
:1012D0000ED0994B98420BD0B0F1804F08D0914B73
:1012E000984205D0904B984202D0904B984204D13E
:1012F0004FF68F731A404B881A438D4B984207D094
:101300008C4B984204D04FF6FF431A40CB881A43C7
:1013100002808B8883850B880385814B98420BD094
:10132000854B984208D08B4B984205D08A4B984207
:1013300002D08A4B984201D10B7A03860123838223
:10134000704770B5002400220023058C4FF6FE760E
:1013500035400584028C8388048B4FF68F752C40B2
:10136000B51E2C400D882C43751E2A400D892A433A
:101370004D882A436A4DA8420BD06F4DA84208D031
:10138000744DA84205D0744DA84202D0734DA842B6
:1013900013D14FF6F7752A404D892A434FF6FB7556
:1013A0002A408D882A434FF6FF652B404FF6FF55A4
:1013B0002B408D892B43CD892B4383800483CD889B
:1013C0008586028470BD70B5002400220023058C40
:1013D0004FF6EF7635400584028C8388048B48F6FF
:1013E000FF752C404FF6FF452C400D884FF6FF76D9
:1013F00006EA05252C434FF6DF752A400D8906EADB
:1014000005152A434D8806EA05152A43444DA8428E
:1014100002D0494DA8421DD14FF67F752A404D8913
:101420004FF6FF7606EA05152A434FF6BF752A40A8
:101430008D8806EA05152A434FF6FF352B404FF2FB
:10144000FF752B408D8906EA85052B43CD8906EA79
:1014500085052B4383800483CD880587028470BD76
:1014600070B5002400220023058C4FF6FF6635403E
:101470000584028C8388848B4FF68F752C404FF641
:10148000FC752C400D882C434FF6FF552A400D89E2
:101490004FF6FF7606EA05252A434D8806EA05251C
:1014A0002A431F4DA84202D0234DA8421DD14FF21E
:1014B000FF752A404D894FF6FF7606EA05252A4337
:1014C0004FF6FF352A408D8806EA05252A434EF659
:1014D000FF752B404DF6FF752B408D8906EA0515EB
:1014E0002B43CD8906EA05152B4383808483CD8861
:1014F0008587028470BD70B5002200230024058C0E
:101500004EF6FF7635400584038C8488828B48F63E
:10151000FF752A404FF6FF452A400D8820E0000065
:10152000002C01400004004000080040000C004076
:10153000001000400014004000340140004C014005
:10154000005001400054014000180040001C0040C1
:10155000002000400040014000440140004801409C
:101560004FF6FF7606EA05252A434DF6FF752B4018
:101570000D8906EA05352B434D8806EA05352B43D0
:10158000FA4DA84202D0FA4DA84208D14BF6FF7599
:101590002C408D894FF6FF7606EA85152C43848012
:1015A0008283CD88A0F84050038470BD828B4FF2B7
:1015B000FF331A408283828B4FF6FF7303EA0123C5
:1015C0001A4382837047F0B50C461546002200216D
:1015D0000026078C4EF6FF7C07EA0C070784828BF7
:1015E000018C4FF6FF7707EA043640F6FF473A4092
:1015F0004FF6FF7707EA05273A434FF6FF7707EAEA
:1016000003373A43D94FB8420ED0D94FB8420BD026
:10161000B0F1804F08D0D74FB84205D0D64FB8426E
:1016200002D0D64FB84206D14DF6FF77394046F486
:101630008057394305E047F6FF57394044F4805757
:10164000394382830184F0BD828B4FF6F3731A40D5
:101650008283828B0A4382837047F0B50C4615461D
:10166000002200210026078C4FF6FF6C07EA0C07CA
:101670000784828B018C4FF6FF7707EA04264FF62A
:101680000C773A404FF6FF7707EA03172F433A43A8
:10169000B64FB8420ED0B64FB8420BD0B0F1804F23
:1016A00008D0B44FB84205D0B34FB84202D0B34FC0
:1016B000B84206D14FF6FF57394046F48077394398
:1016C00005E04FF2FF57394044F480773943828375
:1016D0000184F0BD028B4FF2FF331A400283028B6C
:1016E0004FF6FF7303EA01231A4302837047F0B5F4
:1016F0000C461546002200210026078C4FF6EF7C91
:1017000007EA0C070784028B018C4FF6FF7707EA84
:10171000041640F6FF473A404FF6FF7707EA0337D3
:101720003A434FF6FF7707EA05273A438F4FB8420F
:101730000ED08F4FB8420BD0B0F1804F08D08D4FF4
:10174000B84205D08C4FB84202D08C4FB84206D177
:101750004FF6DF77394046F01007394305E04FF682
:101760005F77394044F01007394302830184F0BDAC
:10177000028B4FF6F3731A400283028B0A430283F3
:101780007047F0B50C46154600220021068C4FF636
:10179000FE773E400684028B018C4FF60C76324079
:1017A0007E1C06EA03162E433243704EB0420ED022
:1017B0006F4EB0420BD0B0F1804F08D06D4EB042AA
:1017C00005D06D4EB04202D06C4EB04206D14FF6FD
:1017D000FD76314044F00106314305E04FF6F576E1
:1017E000314044F00106314302830184F0BD70B5FD
:1017F00005460C465D4885420ED05D4885420BD0BB
:10180000B5F1804F08D05B48854205D05A488542E3
:1018100002D05A48854200D100E000BF208850B96C
:101820002389A28861882846FFF7ABFFE188284614
:10183000FFF79EFF25E0208804280AD12389A2888B
:1018400061882846FFF753FFE1882846FFF742FFEB
:1018500017E0208808280AD12389A28861882846B1
:10186000FFF7FBFEE1882846FFF7EEFE09E023893B
:10187000A28861882846FFF7A6FEE1882846FFF780
:1018800095FE70BD2DE9F04105460C460026012766
:10189000608808B9022600E00026A088012801D14E
:1018A000022700E001272088A0B92389A288618847
:1018B0002846FFF766FFE1882846FFF759FF23898E
:1018C0003A4631462846FFF712FFE1882846FFF7DF
:1018D00001FF13E02389A28861882846FFF707FFEC
:1018E000E1882846FFF7F6FE23893A463146284626
:1018F000FFF747FFE1882846FFF73AFFBDE8F08190
:101900000A884B881A438B881A43CB881A430B8961
:101910001A434B891A438B891A43A0F84420704715
:101920004FF6FF71818000210180C18041800172EA
:1019300070470021018041808180C1800181418107
:101940008181C18170470021018041800121818016
:101950000021C18001817047002101804180818088
:10196000C18001814181818170470000002C0140CC
:10197000003401400004004000080040000C00401A
:1019800021B1028842F00102028004E002884FF691
:10199000FE731A400280704731B1B0F8442042F41F
:1019A0000042A0F8442005E0B0F84420C2F30E0243
:1019B000A0F8442070471AB183890B43838102E069
:1019C00083898B43838170478182704741EA020398
:1019D000A0F8483070471AB183890B43838102E035
:1019E00083898B438381704701894FF6F8721140D8
:1019F000018170470A46002101894FF68F73194013
:101A000011430181704730B504460D4629462046F2
:101A1000FFF7F0FF208940F00700208130BD2DE95D
:101A2000F04104460D4616461F46602D06D13B4642
:101A3000012231462046FFF75AFE05E03B460122CF
:101A400031462046FFF79DFE29462046FFF7D2FF8C
:101A5000208940F007002081BDE8F08130B50C46B8
:101A600000210189C9B24FF6FF7505EA0325154328
:101A700025432943018130BD2DE9F04105460E463D
:101A800017469846002443463A4631462846FFF713
:101A9000E5FF2C894FF6F870044044F007044FF638
:101AA0008F70044044F070042C81BDE8F081F0B5E3
:101AB00004460D4616461F463B46324629462046FA
:101AC000FFF7CCFF208940F480402081F0BD0185E4
:101AD000828270470A46002101884FF68F731940B1
:101AE000114301807047F0B50C4615461E46002193
:101AF000002200230189028B038C4FF6F8773940CE
:101B000021434FF6FC473A4040F201173A434FF663
:101B1000DD773B404FF6FF7707EA06172F433B433D
:101B2000018102830384F0BD0A460021018B4FF638
:101B30008F7319401143018370470A460021018BBE
:101B400048F6FF7319404FF6FF7303EA0223194367
:101B5000018370470A460021818B4FF68F7319402D
:101B60001143818370470A460021818B48F6FF7339
:101B700019404FF6FF7303EA02231943818370472C
:101B800021B1028842F08002028004E002884FF610
:101B90007F731A400280704721B1828842F00402AC
:101BA000828004E082884FF6FB731A40828070477F
:101BB00021B1828842F00802828004E082884FF6D8
:101BC000F7731A408280704721B1828842F0010287
:101BD000828004E082884FF6FE731A40828070474C
:101BE0000A460021018B4FF6F77319401143018318
:101BF00070470A460021018B4FF2FF7319404FF6E0
:101C0000FF7303EA02231943018370470A46002148
:101C1000818B4FF6F77319401143818370470A4651
:101C20000021818B4FF2FF7319404FF6FF7303EAD7
:101C300002231943818370470A460021018B4FF626
:101C4000FB7319401143018370470A460021018B41
:101C50004FF6FF3319404FF6FF7303EA022319438F
:101C6000018370470A460021818B4FF6FB731940B0
:101C70001143818370470A460021818B4FF6FF3361
:101C800019404FF6FF7303EA02231943818370471B
:101C90000A460021018B4FF67F73194011430183DF
:101CA00070470A460021018BC1F30E014FF6FF7306
:101CB00003EA02231943018370470A460021818BFE
:101CC0004FF67F7319401143818370470A46002104
:101CD000818BC1F30E014FF6FF7303EA0223194310
:101CE000818370470A460021018C4FF6FD7319402D
:101CF0001143018470470A460021018C4FF6F773A7
:101D000019401143018470470A460021018C4FF6A7
:101D1000DF7319404FF6FF7303EA0213194301847E
:101D200070470A460021018C4FF67F7319404FF629
:101D3000FF7303EA02131943018470470A46002126
:101D4000018C4FF6FF5319404FF6FF7303EA02234D
:101D50001943018470470A460021018C4FF2FF733A
:101D600019404FF6FF7303EA0223194301847047B9
:101D70000A460021018C4DF6FF7319404FF6FF73A0
:101D800003EA023319430184704730B5002301246C
:101D90008C40A3B2048C9C430484048C02FA01F5A9
:101DA000ADB22C43048430BD30B5002304248C40F4
:101DB000A3B2048C9C430484048C02FA01F5ADB2F6
:101DC0002C43048430BD70B503460020002418461F
:101DD000183001258D40ACB21D8CA5431D8409B17E
:101DE000082909D100EB6100056825F07005056040
:101DF0000568154305600EE00D1FC5F34E05284428
:101E0000056825F4E045056005684FF6FF7606EAAB
:101E100002263543056070BD21B1028842F00202FE
:101E2000028004E002884FF6FD731A40028070477A
:101E300021B1028842F00402028004E002884FF6D9
:101E4000FB731A400280704721B1828842F0800201
:101E5000828004E082884FF67F731A408280704748
:101E600002884FF6F7731A40028002880A43028004
:101E7000704782884FF68F731A40828082880A43A7
:101E80008280704702894FF6F8731A4002810289F6
:101E90000A430281704702894FF67F731A4002811C
:101EA00002890A43028170478184704781857047A7
:101EB000818670470187704781877047A0F840107E
:101EC000704702884FF6FF431A40028002880A4397
:101ED000028070470146888E70470146088F704720
:101EE0000146888F70470146B1F8400070470146AF
:101EF000888C70470146088D704702460020138A7F
:101F00000B400BB1012000E000207047CA43028261
:101F1000704730B50246002000230024158A05EAE8
:101F20000103958905EA010413B10CB1012000E019
:101F3000002030BDCA4302827047000010B504463D
:101F4000FB48844209D101218803FFF79FF8002153
:101F50004FF48040FFF79AF832E0F648844209D106
:101F600001214804FFF79FF800214FF40030FFF7EC
:101F70009AF825E0F048844209D101218804FFF74E
:101F800092F800214FF48020FFF78DF818E0EB481D
:101F9000844209D10121C804FFF785F800214FF4DC
:101FA0000020FFF780F80BE0E548844208D10121CA
:101FB0000805FFF778F800214FF48010FFF773F859
:101FC00010BD2DE9F04786B005460E460024A24616
:101FD00000BFA1460027B08900B100BF2F462C8A60
:101FE0004CF6FF700440F08804432C82AC894EF616
:101FF000F3100440B08831890843718908430443D1
:10200000AC81AC8A4FF6FF400440B0890443AC82F7
:1020100001A8FEF7B4FFC648874202D1DDF810A040
:1020200001E0DDF80CA0A88900F4004040B10AEB03
:10203000CA0000EB0A1031684900B0FBF1F807E074
:102040000AEBCA0000EB0A1031688900B0FBF1F816
:102050006420B8FBF0F004012009642101FB108921
:10206000A88900F4004040B1322000EBC900B0FB69
:10207000F1F000F00700044308E0322000EB091003
:102080006421B0FBF1F000F00F0004432C8106B096
:10209000BDE8F0874FF41651016000218180C180B6
:1020A00001810C21418100218181704710B50246D8
:1020B0000020108A4FF2FF0318400B884C882343FE
:1020C0008C882343CC8823431843108210BD002101
:1020D000018041808180C180704721B1828942F4B2
:1020E0000052828104E082894DF6FF731A4082819A
:1020F0007047F0B50346002400260025002040F676
:102100006A17B94200D100BF1846C1F3421401F06A
:102110001F06012707FA06F5012C01D10C3004E057
:10212000022C01D1103000E014301AB107682F439F
:10213000076002E00768AF430760F0BD1AB1838A09
:102140000B43838202E0838A8B4383827047028A37
:102150004FF6F0731A400282028A0A4302827047E5
:1021600082894FF2FF731A40828182890A438281F9
:10217000704721B1828942F00202828104E08289A3
:102180004FF6FD731A4082817047028A4FF6DF7363
:102190001A400282028A0A430282704721B1028AEF
:1021A00042F48042028204E0028A4BF6FF731A4036
:1021B00002827047C1F30802828070470146888816
:1021C000C0F308007047818941F0010181817047A7
:1021D000028BD2B20283028B42EA01220283704751
:1021E000028B02F47F420283028B0A430283704710
:1021F00021B1828A42F02002828204E0828A4FF674
:10220000DF731A408282704721B1828A42F0100245
:10221000828204E0828A4FF6EF731A40828270470E
:1022200021B1828A42F00802828204E0828A4FF65B
:10223000F7731A408282704721B1828942F40042CA
:10224000828103E08289C2F30E028281704721B14C
:10225000828A42F40062828204E0828A4FF2FF7333
:102260001A4082827047828A4FF6FB731A4082823C
:10227000828A0A438282704721B1828A42F0020236
:10228000828204E0828A4FF6FD731A408282704790
:1022900002460020B1F5007F00D100BF13880B403B
:1022A0000BB1012000E00020704701F40072B2F58C
:1022B000007F00D100BFCA430280704770B502465C
:1022C000002400230025002040F66A16B14200D108
:1022D00000BFC1F3421501F01F03012606FA03F304
:1022E000012D02D19689334006E0022D02D1168AD3
:1022F000334001E0968A33400C12012606FA04F4BA
:102300001688344013B10CB1012000E0002070BDEC
:1023100010B50022002340F66A14A14200D100BF8C
:102320000A1201249440A3B2DC43048010BD0000D3
:10233000003801400044004000480040004C00408C
:102340000050004010B56FF00400FEF794F82E48DE
:1023500000682E49B0FBF1F02D490870084600785E
:1023600000EB4001C1EBC0104FF6FF7101EAC00065
:102370002849088010BD0146254A12784A434FF08B
:10238000E0235A6100229A611A46126942F0010262
:102390001A6100BF4FF0E022106900F001021AB18B
:1023A00000F48032002AF5D04FF0E022126922F0CA
:1023B00001024FF0E0231A6100229A617047014642
:1023C000144A12884A434FF0E0235A6100229A616E
:1023D0001A46126942F001021A6100BF4FF0E02272
:1023E000106900F001021AB100F48032002AF5D021
:1023F0004FF0E022126922F001024FF0E0231A614F
:1024000000229A61704700000000002000127A004C
:10241000280000202A000020014600BF704700BFAE
:10242000694A128802F04002002AF9D0C2B2664B13
:102430001B1D1A80704710B5C821644801F0E5F9EA
:1024400000206349088010BD10B586B00446012104
:1024500044F20400FEF700FE4FF40070ADF81400E3
:1024600003208DF8160018208DF8170005A959488B
:10247000FEF736FB4FF48060ADF8140004208DF8B1
:10248000170005A95348FEF72BFB25208DF8000007
:1024900003208DF801008DF8020001208DF8030063
:1024A0006846FDF79EFF01940020ADF80800ADF8E6
:1024B0000A00ADF80C00ADF810000C20ADF80E00CD
:1024C00001A94148FFF77DFD012240F225513E4818
:1024D000FFF70FFE01213C48FFF7FFFDFFF7ABFFC1
:1024E00006B010BD10B540F225513748FFF7E6FEA3
:1024F000002839D03448FFF761FEC4B2242C02D141
:10250000002033490880324801880088401C304A46
:1025100010802E484454007824281ED12B4800797E
:102520004D281AD129484079432816D10A2C14D1B4
:102530005021294801F069F9254802882349264895
:1025400001F01EF90120244981F8500000202049A3
:102550000880C8211D4801F058F91D480088C82886
:1025600002DBC8201A49088010BD10B50446214678
:10257000164801F0F3F808B1012010BD0020FCE777
:1025800010B50020144981F8500081F8510081F8FD
:1025900078005021104801F038F90F4852300021DE
:1025A00001604160018181720B30016041600181F5
:1025B00081725D38A0F868106A3001604160816006
:1025C0006A38A0F8761010BD003801404D04002094
:1025D0002E00002000080140D403002010B5202167
:1025E000F948FEF72AFB8021F748FEF726FB8021F9
:1025F000F548FEF724FB2021F348FEF720FB10BD31
:1026000010B52021F048FEF718FB8021EE48FEF7B8
:1026100016FB8021EC48FEF710FB10BD10B5202101
:10262000E948FEF70AFB2021E748FEF708FB10BD4A
:102630002DE9F04105462C462021E348FEF7FFFA3C
:10264000002619E0274607F08007802F04D180215B
:10265000DD48FEF7F2FA03E08021DB48FEF7EFFAEF
:102660006006040E2021D848FEF7E7FA2021D6485C
:10267000FEF7E5FA701CC6B2082EE3DBBDE8F08178
:1026800010B50446FFF7AAFF7820FFF7D1FFFFF748
:10269000C5FF0020FFF7CCFFFFF7C0FF2046FFF784
:1026A000C7FFFFF7BBFFFFF7ABFF10BD10B5044638
:1026B000FFF794FF7820FFF7BBFFFFF7AFFF402045
:1026C000FFF7B6FFFFF7AAFF2046FFF7B1FFFFF7BE
:1026D000A5FFFFF795FF10BD70B504460D461DB16F
:1026E000E0B2FFF7E3FF02E0E0B2FFF7C9FF70BD21
:1026F00070B50646002418E004F1B0000021FFF791
:10270000EBFF00210846FFF7E7FF00211020FFF74D
:10271000E3FF002505E001213046FFF7DDFF681CDF
:10272000C5B2802DF7DB601CC4B2082CE4DB70BDA1
:1027300006E041F6650100E0491E0029FCD1401E7B
:102740000028F6D17047014605E0002001E0421C58
:10275000D0B27B28FBDB0A1EA1F10101F5D1704745
:1027600070B504460D4605F1B0000021FFF7B4FF37
:10277000102141EA14100021FFF7AEFF04F00F0012
:102780000021FFF7A9FF70BD10B500218D20FFF7D4
:10279000A3FF00211420FFF79FFF0021AF20FFF7C8
:1027A0009BFF10BD10B500218D20FFF795FF002184
:1027B0001020FFF791FF0021AE20FFF78DFF10BD25
:1027C00070B5002418E004F1B0000021FFF784FF89
:1027D00000210846FFF780FF00211020FFF77CFF53
:1027E000002505E001210020FFF776FF681CC5B237
:1027F000802DF7DB601CC4B2082CE4DB70BD70B523
:10280000002418E004F1B0000021FFF765FF00216B
:102810000846FFF761FF00211020FFF75DFF00254C
:1028200005E001210846FFF757FF681CC5B2802D5F
:10283000F7DB601CC4B2082CE4DB70BD2DE9F04767
:1028400007460E469046994600250024A8F1200030
:10285000C5B27F2F02DD0027B01CC6B2B9F1100F40
:1028600024D131463846FFF77BFF002408E004EB13
:102870000511564A505C0121FFF72EFF601CC4B2BF
:10288000082CF4DB701CC1B23846FFF769FF002446
:1028900009E004EB051108314C4A505C0121FFF7B7
:1028A0001BFF601CC4B2082CF3DB12E03146384633
:1028B000FFF756FF00240AE005EB4501444A02EB0E
:1028C0004101085D0121FFF707FF601CC4B2062C1F
:1028D000F2DBBDE8F08710B50246012000E050436E
:1028E0000B1EA1F10104E1B2F9D110BD2DE9FF5F8A
:1028F000074691461E460E9D4FF0000A002435E023
:10290000301B401EC1B20A20FFF7E5FFB9FBF0F013
:102910000A21B0FBF1F201FB1208BAF1000F14D149
:10292000701EA04211DDB8F1000F0CD1AB4605EBD3
:10293000DB71491001FB0471C8B22B4620220199BA
:10294000FFF77CFF10E04FF0010AAB4605EBDB71AF
:10295000491001FB0471C8B208F13001CAB22B461C
:102960000199FFF76BFF00BF601CC4B2B442C7DB24
:10297000BDE8FF9F2DE9F04104460F4615469846F5
:1029800000260FE0AA5D434639462046FFF756FF72
:1029900004F10800C4B2782C02DD0024B81CC7B2D0
:1029A000701CC6B2A85D0028ECD1BDE8F0812DE90D
:1029B000F04180460E461546002731464046FFF757
:1029C000CFFE002411E0000000080140943B000805
:1029D0006C390008734A02EB8511085D0121FFF78D
:1029E0007BFE781CC7B2601CC4B2102CF2DB701CDA
:1029F000C1B24046FFF7B4FE00240CE06900491C58
:102A0000684A02EB4111085D0121FFF765FE781C61
:102A1000C7B2601CC4B2102CF0DBBDE8F0812DE918
:102A2000F05F06460F4690461C46DDF828A04FF0A2
:102A3000000BE11704EB5171C910A4EBC10131B9CE
:102A40002046E11704EB5171C1F3C70506E02046AB
:102A5000E11704EB5171C910491CCDB23D4615E098
:102A600029463046FFF77CFEB1460BE059460BF194
:102A7000010B1AF801000121FFF72EFE09F10100F8
:102A800000F0FF09C145F1DB681CC5B2A542E7DBD8
:102A9000BDE8F09F08B501210420FEF7DDFAA02073
:102AA000ADF8000010208DF8030003208DF802001F
:102AB00069463D48FEF714F8A0213B48FEF7BDF8F3
:102AC0004FF44870FFF77BFC0021AE20FFF704FEB7
:102AD00000210846FFF700FE00211020FFF7FCFD53
:102AE00000214020FFF7F8FD0021B020FFF7F4FDA2
:102AF00000218120FFF7F0FD0021FF20FFF7ECFD12
:102B00000021A120FFF7E8FD0021A620FFF7E4FD4A
:102B10000021A820FFF7E0FD00213F20FFF7DCFDAA
:102B20000021C820FFF7D8FD0021D320FFF7D4FDF6
:102B300000210846FFF7D0FD0021D520FFF7CCFD8E
:102B400000218020FFF7C8FD0021D820FFF7C4FD39
:102B500000210520FFF7C0FD0021D920FFF7BCFDB3
:102B60000021F120FFF7B8FD0021DA20FFF7B4FDC6
:102B700000211220FFF7B0FD0021DB20FFF7ACFDA4
:102B800000213020FFF7A8FD00218D20FFF7A4FDD4
:102B900000211420FFF7A0FD0021AF20FFF79CFDCE
:102BA00008BD0000360000200008014008B50121E2
:102BB0000D20FEF751FA0121FE48FEF762F80220CF
:102BC000ADF8000048208DF8030003208DF80200C6
:102BD0006946F948FDF784FF0420ADF8000048205D
:102BE0008DF8030003208DF802006946F248FDF7D6
:102BF00077FF0820ADF8000048208DF8030003207F
:102C00008DF802006946EC48FDF76AFF1020ADF828
:102C1000000048208DF8030003208DF8020069466B
:102C2000E548FDF75DFF1020ADF800008DF80300CA
:102C300003208DF802006946E048FDF751FF20208F
:102C4000ADF8000010208DF8030003208DF802007D
:102C50006946DA48FDF744FF4020ADF80000102037
:102C60008DF8030003208DF802006946D348FDF774
:102C700037FF8020ADF8000010208DF803000320FE
:102C80008DF802006946CD48FDF72AFF1021CB4898
:102C9000FDF7D5FF2021C948FDF7D1FF4021C748E6
:102CA000FDF7CDFF8021C548FDF7C9FF0221C248CD
:102CB000FDF7C3FF0421C048FDF7BFFF0821BE4850
:102CC000FDF7BBFF1021BC48FDF7B7FF08BD1CB5E1
:102CD0001E20009000208DF804000C208DF80500C7
:102CE00000208DF806006846FDF71AFE1CBD1CB5D5
:102CF0001E20009000208DF804000C208DF80500A7
:102D000001208DF806006846FDF70AFE1CBD0EB5D1
:102D1000FFF74CFF01210020FDF7F8FF0220019092
:102D200000208DF808000C208DF8090001208DF896
:102D30000A0001A8FDF7F4FD02210020FDF7E6FFDF
:102D40000420019001A8FDF7EBFD03210020FDF711
:102D5000DDFF0820019001A8FDF7E2FD042100201D
:102D6000FDF7D4FF1020019001A8FDF7D9FD072041
:102D70008DF8000002208DF8010003208DF802007C
:102D800001208DF803006846FDF72BFB08208DF825
:102D9000000002208DF801008DF8020001208DF85E
:102DA00003006846FDF71DFB09208DF80000022096
:102DB0008DF8010001208DF802008DF803006846AF
:102DC000FDF70FFB0A208DF8000002208DF80100AE
:102DD00000208DF8020001208DF803006846FDF701
:102DE00000FB0EBD10B53220FFF7E9FA0220FDF717
:102DF000FDFD00287ED0FFF76AFF02216E48FDF737
:102E00001CFF10216D48FDF71AFF20216B48FDF7CC
:102E100014FF40216948FDF710FF80216748FDF746
:102E20000CFF02216448FDF7EEFE48B900BF022105
:102E30006148FDF7E8FE0028F9D1012060490860EB
:102E400010215E48FDF7F9FE20215C48FDF7F7FEF2
:102E500040215A48FDF7F1FE80215848FDF7EDFE6C
:102E600002215548FDF7CFFE48B900BF0221524864
:102E7000FDF7C9FE0028F9D1022051490860102150
:102E80004E48FDF7DAFE20214C48FDF7D6FE4021E2
:102E90004A48FDF7D4FE80214848FDF7CEFE0221C6
:102EA0004548FDF7B0FE48B900BF02214248FDF792
:102EB000AAFE0028F9D103204149086010213F48AB
:102EC000FDF7BBFE20213D48FDF7B7FE40213B4802
:102ED000FDF7B3FE80213948FDF7B1FE02213648E7
:102EE000FDF791FE58B900BF02213348FDF78BFE74
:102EF000002800E028E0F7D10420314908601021C3
:102F00002E48FDF79CFE20212C48FDF798FE40211D
:102F10002A48FDF794FE80212848FDF790FE022103
:102F20002548FDF78AFE04212348FDF786FE082187
:102F30002148FDF782FE10211F48FDF77EFEFFF7B6
:102F4000D6FE0220FDF763FD10BD10B53220FFF75D
:102F500036FA0420FDF74AFD00287DD0FFF7B7FEC2
:102F600004211548FDF769FE10211448FDF767FE9E
:102F700020211248FDF761FE40211048FDF75DFE5B
:102F800080210E48FDF759FE04210B48FDF73BFE5A
:102F900048B900BF04210848FDF735FE0028F9D1E3
:102FA00005200749086010210448FDF746FE20214E
:102FB000024807E00002300000080140000C014018
:102FC000B8030020FDF73BFE4021F148FDF735FE38
:102FD0008021EF48FDF731FE0421EE48FDF713FE96
:102FE00048B900BF0421EB48FDF70DFE0028F9D1D8
:102FF0000620E94908601021E548FDF71EFE202162
:10300000E348FDF71AFE4021E148FDF718FE802154
:10301000DF48FDF712FE0421DE48FDF7F4FD48B954
:1030200000BF0421DB48FDF7EEFD0028F9D10720A1
:10303000D94908601021D648FDF7FFFD2021D4486A
:10304000FDF7FBFD4021D248FDF7F7FD8021D04878
:10305000FDF7F5FD042100E032E0CE48FDF7D3FD99
:1030600048B900BF0421CB48FDF7CDFD0028F9D1B8
:103070000820C94908601021C548FDF7E0FD20215E
:10308000C348FDF7DCFD4021C148FDF7D8FD802194
:10309000BF48FDF7D4FD0221BE48FDF7CEFD042157
:1030A000BC48FDF7CAFD0821BA48FDF7C6FD10214E
:1030B000B848FDF7C2FDFFF71AFE0420FDF7A7FC94
:1030C00010BD10B53220FFF77AF90820FDF78EFC0D
:1030D00000287DD0FFF7FBFD0821AE48FDF7ADFDD0
:1030E0001021AB48FDF7ABFD2021A948FDF7A5FD58
:1030F0004021A748FDF7A1FD8021A548FDF79DFDD2
:103100000821A448FDF77FFD48B900BF0821A14868
:10311000FDF779FD0028F9D109209F4908601021A9
:103120009B48FDF78AFD20219948FDF788FD402145
:103130009748FDF782FD80219548FDF77EFD082127
:103140009448FDF760FD48B900BF08219148FDF79C
:103150005AFD0028F9D10A208F49086010218C48B7
:10316000FDF76BFD20218A48FDF767FD4021884867
:10317000FDF765FD80218648FDF75FFD0821854844
:10318000FDF741FD48B900BF08218248FDF73BFD2E
:103190000028F9D10B208049086010217C48FDF7F8
:1031A0004CFD20217A48FDF748FD40217848FDF785
:1031B00044FD80217648FDF742FD08217548FDF762
:1031C00022FD58B900BF08217248FDF71CFD00E040
:1031D00029E00028F7D10C206F49086010216C48C5
:1031E000FDF72DFD20216A48FDF729FD40216848A3
:1031F000FDF725FD80216648FDF721FD0221654888
:10320000FDF71BFD04216348FDF717FD0821614808
:10321000FDF713FD10215F48FDF70FFDFFF767FD78
:103220000820FDF7F4FB10BD10B53220FFF7C7F8FA
:103230001020FDF7DBFB00287ED0FFF748FD1021B2
:103240005448FDF7FAFC10215148FDF7F8FC202105
:103250004F48FDF7F2FC40214D48FDF7EEFC802180
:103260004B48FDF7EAFC10214A48FDF7CCFC48B971
:1032700000BF10214748FDF7C6FC0028F9D10D20FA
:103280004549086010214248FDF7D7FC20214048FD
:10329000FDF7D5FC40213E48FDF7CFFC80213C489E
:1032A000FDF7CBFC10213B48FDF7ADFC48B900BF52
:1032B00010213848FDF7A7FC0028F9D10E20364927
:1032C000086010213248FDF7B8FC20213048FDF796
:1032D000B4FC40212E48FDF7B2FC80212C48FDF7BC
:1032E000ACFC10212B48FDF78EFC48B900BF102123
:1032F0002848FDF788FC0028F9D10F2026490860EE
:1033000010212348FDF799FC20212148FDF795FC69
:1033100040211F48FDF791FC80211D48FDF78FFCDF
:1033200010211C48FDF76FFC58B900BF1021194847
:10333000FDF769FC002800E028E0F7D110201649CD
:10334000086010211248FDF77AFC20211048FDF793
:1033500076FC40210E48FDF772FC80210C48FDF7F9
:103360006EFC02210B48FDF768FC04210948FDF7BB
:1033700064FC08210748FDF760FC10210548FDF7B3
:103380005CFCFFF7B4FC1020FDF741FB10BD000012
:10339000000C014000080140B803002008B50121DD
:1033A0001420FDF759FE4FF40050ADF80000102036
:1033B0008DF8030003208DF8020069463148FDF7BF
:1033C0008FFB4FF400512F48FDF737FC4FF480403E
:1033D000ADF8000010208DF8030003208DF80200E6
:1033E00069462848FDF77CFB4FF480412548FDF7EE
:1033F00024FC4FF40040ADF8000010208DF80300CD
:1034000003208DF8020069461E48FDF769FB4FF462
:1034100000411C48FDF711FC0120ADF80000102010
:103420008DF8030003208DF8020069461648FDF769
:1034300057FB01211448FDF700FC08BD10B500F052
:1034400086F8124908600846007800F00100C04381
:103450000F4908600D480078C0F34000C0430D4993
:10346000C1F8B80109480078C0F38000C043C1F832
:10347000BC0106480078C0F3C000C0430649C1F84B
:10348000800110BD0010014000080140BC03002075
:10349000B4012242000022420000214200B587B060
:1034A00001214FF40170FDF7D7FD4FF40040FDF707
:1034B00037FD4020ADF8040000208DF8070001A979
:1034C0002E48FDF70DFB2E48FCF7F4FF002002907C
:1034D0008DF80C008DF80D004FF460200490002052
:1034E000059001208DF8180002A92548FDF709F87C
:1034F00001212348FDF731F82148FDF750F800BFBE
:103500001F48FDF751F80028FAD11D48FDF756F87D
:1035100000BF1B48FDF757F80028FAD107B000BDDF
:1035200010B504460723012221461548FDF781F80E
:1035300001211348FDF751F800BF02211048FDF7A3
:10354000BDF90028F9D00E48FDF7DAF810BD10B526
:103550000620FFF7E5FF0B4908600846006800F009
:10356000DFF8FCF733FE0F2190FBF1F201FB1200B4
:10357000054908600846006810BD000000080140C9
:1035800000240140C4030020C003002008B501212D
:103590000820FDF761FD0120ADF8000010208DF836
:1035A000030003208DF8020069460B48FDF798FAE6
:1035B0004FF48070ADF8000010208DF80300032058
:1035C0008DF8020069460448FDF78AFA4FF48071CD
:1035D0000148FDF734FB08BD000C01407FB50546EE
:1035E0000C4601210220FDF744FDADF80850ADF86E
:1035F00004400020ADF80A00ADF8060001A93C48DF
:10360000FDF762FE012211463948FEF7D4F91D206C
:103610008DF8000002208DF8010003208DF80200D3
:1036200001208DF803006846FCF7DBFE01213048DD
:10363000FEF7A6F97FBD08B501212D48FEF769FC0C
:10364000002853D001212A48FEF774FC294800685D
:10365000401C28490860084600681E2846D1002002
:103660002549086011E0002024490860C820FEF7C1
:1036700082FE01202249C1F8A001C820FEF77BFE8E
:103680001D480068401C1C4908601B48006814283D
:10369000E9DB00201949203908603220FEF78FFE4F
:1036A00001201749C1F88001002012490860FFF786
:1036B00087F8092313A200210846FFF75BF90723C7
:1036C00013A202210020FFF755F9082003460090BD
:1036D0001148022102683220FFF708F9C820FEF7DE
:1036E0006EFEFFF76DF800200B49086008BD000072
:1036F00000040040D0030020CC030020A081214220
:103700000080214267616D656F7665720000000080
:1037100073636F72653A0000C803002070470000B1
:103720000B4910B5A1F17C020A4CC2E937123721CE
:1037300006E000EB104342F82130074B00FB03404A
:103740000B1EA1F10101F4DC10BD0120E8E700002F
:1037500094050020E119D666CD0D010030B505466F
:103760000B462A4613F8014B12F8010B08B1A04290
:10377000F8D01CB1002802D06D1CF1E7284630BDFE
:10378000032A40F2308010F0030C00F0158011F88D
:10379000013BBCF1020F624498BF11F801CB00F865
:1037A000013B38BF11F8013BA2F1040298BF00F8B9
:1037B00001CB38BF00F8013B11F0030300F04B8050
:1037C000083AC0F0088051F8043B083A51F804CB9D
:1037D000A0E80810F5E7121D5CBF51F8043B40F863
:1037E000043BAFF30080D20724BF11F8013B11F86E
:1037F00001CB48BF11F8012B24BF00F8013B00F8B2
:1038000001CB48BF00F8012B70474FF0000204299C
:10381000C0F0128010F0030C00F05180CCF1040CC9
:10382000BCF1020F18BF00F8012BA8BF20F8022B33
:10383000A1EB0C0100F043B85FEAC17C24BF00F8A3
:10384000012B00F8012B48BF00F8012B704770478F
:1038500070477047704710B5203AC0F00B80B1E850
:103860001850203AA0E81850B1E81850A0E81850B5
:10387000BFF4F5AF5FEA027C24BFB1E81850A0E8BE
:10388000185044BF18C918C0BDE810405FEA827CD8
:1038900024BF51F8043B40F8043B08BF7047D207EF
:1038A00028BF31F8023B48BF11F8012B28BF20F890
:1038B000023B48BF00F8012B70474FF0000200B5F3
:1038C000134694469646203922BFA0E80C50A0E843
:1038D0000C50B1F12001BFF4F7AF090728BFA0E8F1
:1038E0000C5048BF0CC05DF804EB890028BF40F8BD
:1038F000042B08BF704748BF20F8022B11F0804FFF
:1039000018BF00F8012B7047754600F02BF8AE4643
:1039100005006946534620F00700854618B020B5DB
:10392000FCF74AFDBDE820404FF000064FF00007CD
:103930004FF000084FF0000B21F00701AC46ACE857
:10394000C009ACE8C009ACE8C009ACE8C0098D46C4
:10395000704710B50446AFF300802046BDE8104024
:10396000FCF72DBC00487047FC050020000000005B
:1039700000000000002F00000000070007000014F6
:103980007F147F1400242A7F2A1200626408132304
:1039900000364955225000000503000000001C229B
:1039A0004100000041221C000014083E08140008D9
:1039B000083E0808000000A0600000080808080889
:1039C000000060600000002010080402003E514921
:1039D000453E0000427F40000042615149460021BF
:1039E00041454B31001814127F10002745454539D9
:1039F000003C4A4949300001710905030036494934
:103A0000493600064949291E0000363600000000EC
:103A10005636000000081422410000141414141437
:103A200000004122140800020151090600324959E0
:103A3000513E007C1211127C007F49494936003EFC
:103A400041414122007F4141221C007F49494941B7
:103A5000007F09090901003E4149497A007F0808B1
:103A6000087F0000417F4100002040413F01007F6E
:103A700008142241007F40404040007F020C027F3A
:103A8000007F0408107F003E4141413E007F09094C
:103A90000906003E4151215E007F09192946004672
:103AA000494949310001017F0101003F4040403F49
:103AB000001F2040201F003F4038403F0063140893
:103AC000146300070870080700615149454300006E
:103AD0007F41410000552A552A55000041417F0091
:103AE0000004020102040040404040400000010286
:103AF0000400002054545478007F4844443800386F
:103B00004444442000384444487F003854545418F6
:103B100000087E0901020018A4A4A47C007F080408
:103B200004780000447D4000004080847D00007FD8
:103B3000102844000000417F4000007C04180478F5
:103B4000007C0804047800384444443800FC2424F1
:103B500024180018242418FC007C080404080048D9
:103B60005454542000043F444020003C4040207CFA
:103B7000001C2040201C003C4030403C00442810E9
:103B80002844001CA0A0A07C004464544C4414149D
:103B900014141414000000000000000000000000D5
:103BA00000000000000000F80000000000000033EA
:103BB0003000000000100C06100C06000000000091
:103BC0000000000040C07840C0784000043F04047A
:103BD0003F040400007088FC08300000001820FF3B
:103BE000211E0000F008F000E018000000211C0376
:103BF0001E211E0000F00888700000001E212324F2
:103C00001927211010160E0000000000000000000F
:103C100000000000000000E018040200000000079F
:103C20001820400000020418E000000000402018A6
:103C300007000000404080F0804040000202010F79
:103C400001020200000000F0000000000101011F5D
:103C500001010100000000000000000080B07000C1
:103C60000000000000000000000000000001010151
:103C700001010101000000000000000000303000E0
:103C800000000000000000008060180400601806BA
:103C90000100000000E010080810E000000F1020F4
:103CA00020100F00001010F8000000000020203F3E
:103CB00020200000007008080888700000302824C8
:103CC0002221300000300888884830000018202069
:103CD00020110E000000C02010F80000000704248E
:103CE000243F240000F808888808080000192120D3
:103CF00020110E0000E0108888180000000F11202D
:103D000020110E0000380808C83808000000003FE5
:103D1000000000000070880808887000001C222144
:103D200021221C0000E010080810E00000003122F1
:103D300022110F00000000C0C00000000000003091
:103D400030000000000000800000000000008060E3
:103D50000000000000008040201008000001020464
:103D6000081020004040404040404000040404044B
:103D70000404040000081020408000000020100807
:103D800004020100007048080808F000000000303C
:103D900036010000C030C828E810E00007182724CA
:103DA00023140B000000C038E0000000203C230278
:103DB0000227382008F8888888700000203F2020DB
:103DC00020110E00C030080808083800071820200D
:103DD0002010080008F808080810E000203F202004
:103DE00020100F0008F88888E8081000203F2020E5
:103DF0002320180008F88888E8081000203F2000D9
:103E000003000000C0300808083800000718202010
:103E1000221E020008F808000008F808203F2101CF
:103E200001213F20000808F8080800000020203F7A
:103E30002020000000000808F8080800C0808080EA
:103E40007F00000008F888C028180800203F2001E3
:103E50002638200008F8080000000000203F20203D
:103E60002020300008F8F800F8F80800203F003F54
:103E7000003F200008F830C00008F808203F20006C
:103E800007183F00E01008080810E0000F1020207D
:103E900020100F0008F808080808F000203F210152
:103EA00001010000E01008080810E0000F182424A9
:103EB00038504F0008F8888888887000203F20001C
:103EC000030C3020007088080808380000382021D2
:103ED00021221C00180808F8080818000000203FDC
:103EE0002000000008F808000008F808001F202043
:103EF00020201F000878880000C838080000073814
:103F00000E010000F80800F80008F800033C070064
:103F1000073C0300081868808068180820302C03CC
:103F2000032C30200838C800C83808000000203FA3
:103F30002000000010080808C83808002038262192
:103F400020201800000000FE020202000000007F96
:103F500040404000000C30C00000000000000001A4
:103F60000638C00000020202FE000000004040408F
:103F70007F000000000004020202040000000000B4
:103F80000000000000000000000000008080808031
:103F90008080808000020204000000000000000019
:103FA00000000000000080808080000000192422B2
:103FB00022223F2008F8008080000000003F1120EE
:103FC00020110E000000008080800000000E1120F3
:103FD00020201100000000808088F800000E1120D1
:103FE00020103F200000808080800000001F2222DF
:103FF00022221300008080F0888888180020203F4B
:10400000202000000000808080808000006B94945D
:104010009493600008F8008080800000203F210019
:1040200000203F2000809898000000000020203FE2
:1040300020200000000000809898000000C08080D0
:10404000807F000008F8000080808000203F24026C
:104050002D302000000808F8000000000020203F5C
:10406000202000008080808080808000203F200011
:104070003F20003F8080008080800000203F2100A2
:1040800000203F200000808080800000001F202052
:1040900020201F00808000808000000080FFA12081
:1040A00020110E000000008080808000000E112092
:1040B00020A0FF80808080008080800020203F2121
:1040C00020000100000080808080800000332424D4
:1040D00024241900008080E0808000000000001F80
:1040E000202000008080000000808000001F202031
:1040F00020103F20808080000080808000010E30F2
:104100000806010080800080008080800F300C0352
:104110000C300F0000808000808080000020312E55
:104120000E312000808080000080808080818E7031
:104130001806010000808080808080000021302CE3
:104140002221300000000000807C020200000000FC
:10415000003F404000000000FF00000000000000A1
:10416000FF0000000002027C800000000040403F91
:10417000000000000006010102020404000000002B
:1041800000000000A441000800000020D40300004B
:10419000280100084C430008D40300208C080000CC
:1041A000840100081184A24A04680901020304067C
:1041B0000708090C69100510020406081BFE4001DF
:1041C00011FEFF804020101C41167F202010102A75
:1041D0003F2603114078144042CC080B124020F8CF
:1041E0004F4849FE48484841147F20101EFF2222B4
:1041F000223F04021220180BF80C0B0808F840307C
:104200008F080709123F1A2101327F0514438040AD
:104210003F1FFC2424E424245D0313A362195908DE
:104220000D12804040231408142241408080401821
:10423000080444840425C604010B11E40440000E64
:10424000120F4040414E404063504C43404012E00A
:104250001CFF1020BC0A14FFBF220112FF000B1329
:104260008141310D030D3141818100081C38340238
:1042700082C27C380319373718094040484848C87B
:10428000784F060B124848A031000915031212227C
:1042900022528A061C106080A229A6110B12C0307F
:1042A000601D4043407F061C7F42410609103F18B5
:1042B0000B1010FF109008888888FF04021108086E
:1042C00010110444827F01808040432C10284681D5
:1042D00080801901080A11D030FF30D0121C101054
:1042E0001F3D080402019E0D110102040821111650
:1042F000FE222222FE0712FE828292A29E100880D7
:10430000601F0242827F0F11FF402F102C4380114B
:10431000000B1490884C57A42454548C8418080122
:10432000018042221A07441D423E01018AF9E10040
:104330000D14E4242CB4252624B42C24E404180AF7
:0C434000FF02011E1212121E4186013005
:04000005080000ED02
:00000001FF
