:020000040800F2
:10000000E0070020E1010008C5010008C701000861
:10001000CB010008CF010008D30100080000000058
:10002000000000000000000000000000D7010008F0
:10003000D901000800000000DB010008DD01000814
:10004000F7010008F7010008F7010008F7010008B0
:10005000F7010008F7010008F7010008E91300089C
:100060004F150008C71600082D180008F7010008F2
:10007000F7010008F7010008F7010008F701000880
:10008000F7010008F7010008F7010008F701000870
:10009000F7010008F7010008F7010008F701000860
:1000A000F7010008F7010008F7010008F701000850
:1000B000F7010008F7010008F7010008F701000840
:1000C000F7010008F7010008F7010008F701000830
:1000D000F7010008B9100008F7010008F70100084F
:1000E000F7010008F7010008F701000800F002F826
:1000F00000F03AF80AA090E8000C82448344AAF188
:100100000107DA4501D100F02FF8AFF2090EBAE885
:100110000F0013F0010F18BFFB1A43F0010318473B
:10012000CC1A0000EC1A0000103A24BF78C878C13D
:10013000FAD8520724BF30C830C144BF04680C60ED
:10014000704700000023002400250026103A28BF35
:1001500078C1FBD8520728BF30C148BF0B60704739
:100160001FB51FBD10B510BD01F00DFD1146FFF705
:10017000F7FF00F009F801F02BFD03B4FFF7F2FFE1
:1001800003BC00F033FF000000F0C6FE4FF4A06097
:1001900000F042F84FF4E13000F040FF01F000FCC5
:1001A00001F0B7F800200549086006E00348006840
:1001B0000B2802D1002002490860F7E73800002030
:1001C000B4012242704700BFFEE700BFFEE700BF58
:1001D000FEE700BFFEE770477047704770470000BA
:1001E00008480047FEE7FEE7FEE7FEE7FEE7FEE71A
:1001F000FEE7FEE7FEE7FEE703480449044A054B35
:1002000070470000ED000008E0010020E00700203A
:10021000E0030020E003002031490143314A11602E
:10022000704770B5002100230F22C47804B32D4C11
:10023000246804F4E064C4F5E064210AC1F1040315
:10024000CA40447804FA03F1847814402143090138
:10025000254C0678A155047804F01F050124AC4014
:1002600005786D11AD0005F1E025C5F8004109E004
:10027000047804F01F050124AC401C4D067876116B
:1002800045F8264070BD1A4A0A400243154B1B1F11
:100290001A60704739B1134A121D12680243114B9C
:1002A0001B1D1A6006E00F4A121D126882430D4B97
:1002B0001B1D1A607047042808D14FF0E02109691E
:1002C00041F004014FF0E022116107E04FF0E0211E
:1002D000096921F004014FF0E0221161704700002C
:1002E0000000FA050CED00E000E400E080E100E031
:1002F00080FFFF1F002044490860091D0860091D98
:100300000860091D086041483F4914310860704782
:1003100000213D498279002A3AD00A4612680368D2
:100320009A430B461A600A1D126803689A430B1D14
:100330001A60027911440A6803681A430A60324A53
:100340000832126803689A432F4B08331A601A1D4B
:10035000126803689A432C4B0C331A604279102AB6
:100360000ED11A1F126803681A43274B08331A600C
:100370001A1D126803681A43234B0C331A600DE0F0
:100380002149427911440A6803681A430A6005E06A
:10039000027911440A6803689A430A607047002191
:1003A000016001710C214171002181717047164972
:1003B000103109680143144A103211607047014638
:1003C0000020114A143212680A400AB1012000E0EC
:1003D000002070470C491431086070470146002026
:1003E0000022094B1B6803EA0102074B14331B6808
:1003F0000B4013B10AB1012000E000207047024910
:10040000143108607047000000040140FFFF0F0036
:1004100010B50446CC48844208D10121042000F0E4
:100420002DFB0021042000F029FB46E0C748844250
:1004300008D10121082000F021FB0021082000F054
:100440001DFB3AE0C248844208D10121102000F08F
:1004500015FB0021102000F011FB2EE0BD48844266
:1004600008D10121202000F009FB0021202000F00C
:1004700005FB22E0B848844208D10121402000F069
:10048000FDFA0021402000F0F9FA16E0B34884425A
:1004900008D10121802000F0F1FA0021802000F035
:1004A000EDFA0AE0AE48844207D10121801500F040
:1004B000E5FA0021A01500F0E1FA10BD10B5012108
:1004C000084600F0DBFA0021012000F0D7FA10BD49
:1004D0002DE9F041024600250026002000230024DB
:1004E000002791F803C00CF00F0591F803C00CF041
:1004F000100CBCF1000F03D091F802C04CEA0505C6
:1005000091F800C0BCF1000F31D0146800202BE03E
:100510004FF0010C0CFA00F3B1F800C00CEA03062E
:100520009E4220D183004FF00F0C0CFA03F7BC431E
:1005300005FA03FC4CEA040491F803C0BCF1280F4F
:1005400006D14FF0010C0CFA00FCC2F814C00AE00E
:1005500091F803C0BCF1480F05D14FF0010C0CFA23
:1005600000FCC2F810C0401C0828D1D31460B1F8B8
:1005700000C0BCF1FF0F34DD546800202EE000F114
:10058000080C4FF0010808FA0CF3B1F800C00CEAAF
:1005900003069E4221D183004FF00F0C0CFA03F7A3
:1005A000BC4305FA03FC4CEA040491F803C0BCF117
:1005B000280F05D100F1080C08FA0CF8C2F81480D5
:1005C00091F803C0BCF1480F07D100F1080C4FF0BF
:1005D000010808FA0CF8C2F81080401C0828CED395
:1005E0005460BDE8F0814FF6FF71018002218170F7
:1005F0000421C17070470246002093680B400BB184
:10060000012000E0002070470146886880B27047F2
:1006100002460020D3680B400BB1012000E000200F
:1006200070470146C86880B27047016170474161F8
:1006300070470AB1016100E041617047C1607047D5
:100640004FF480320A4382618161826182698269EA
:10065000704702460020434B18684FF680731840DD
:1006600040EA021008433F4B186070473E49C8619A
:100670007047F0B50A46002300240021002500F051
:100680000046B6F1004F02D1364EF16901E0354E19
:100690007168C0F3034583B200F44016B6F5401FFD
:1006A00008D121F070612F4E766826F070662D4FCC
:1006B0007E6012E000F48016B6F5801F06D1032696
:1006C00006FA05F4A14341F0706106E0460D3601DB
:1006D00003FA06F6B14341F0706122B1460D3601CE
:1006E00003FA06F6314300F00046B6F1004F02D19E
:1006F0001C4EF16101E01B4E7160F0BD30B500226F
:100700008B071C0F0F2303FA04F2164B08338C10CF
:1007100053F824309343134C08348D1044F825309B
:1007200023468C1053F824308C07240F00FA04F46D
:1007300023430C4C08348D1044F8253030BD0A4951
:10074000DC3108607047000000080140000C0140E7
:10075000001001400014014000180140001C01403D
:10076000002001400000014000002042DF480068F6
:1007700040F00100DD49086008464068DC49084057
:10078000DA49486008460068DA490840D7490860F5
:100790000846006820F4802008600846406820F47D
:1007A000FE0048604FF41F0088607047CF49096819
:1007B00021F48031CD4A11601146096821F480216D
:1007C0001160B0F5803F03D0B0F5802F0ED106E068
:1007D000C649096841F48031C44A116007E0C34941
:1007E000096841F4A021C14A116000E000BF00BFC8
:1007F000704710B501460022002300204A11012A4B
:1008000002D1BA4C236806E0022A02D1B74C236A0F
:1008100001E0B64C636A01F01F02012494401C40C1
:100820000CB1012000E0002010BD38B50020009080
:100830000024002500BF3120FFF7DBFF05460098AC
:10084000401C00900098B0F5A06F01D0002DF2D0B0
:100850003120FFF7CEFF08B1012400E0002420463C
:1008600038BD01460020A14A106820F0F80040EA97
:10087000C10010607047A049086070470246002020
:100880009A4B586820F47C1042EA01031843974BB6
:100890005860704798490866704701460020934A9F
:1008A000506820F003000843506070478F4840684C
:1008B00000F00C007047014600208C4A506820F080
:1008C000F00008435060704701460020874A506896
:1008D00020F4E06008435060704701460020834ADE
:1008E000506820F4605040EAC1005060704729B160
:1008F0007E4A527A02437D4B5A7204E07B4A527A16
:1009000082437A4B5A7270477B49D83108607047EE
:1009100001460020754A506820F44040084350606A
:1009200070470021714A20321170704A82F82010FD
:10093000012802D004280AD104E001216B4A2032A8
:10094000117005E00521694A2032117000E000BFF6
:1009500000BF70476949086070476449096A0143EC
:10096000624A11627047654944390860704730B582
:1009700000210022002400235C4D6D6805F00C016D
:1009800021B1042905D0082923D105E05C4D05607B
:1009900022E05B4D05601FE0544D6D6805F4701258
:1009A000524D6D6805F48034022505EB92421CB966
:1009B000544D554305600BE04C4D6D6805F4003512
:1009C0001DB1504D5543056002E04D4D5543056046
:1009D00002E04B4D056000BF00BF444D6D6805F05F
:1009E000F0010909484D6B5C0568DD4045603F4DED
:1009F0006D6805F4E061090A434D6B5C4568DD40B4
:100A000085603A4D6D6805F46051C90A3E4D6B5CD6
:100A10004568DD40C560354D6D6805F44041890B82
:100A20003A4D6B5CC568B5FBF3F5056130BD29B186
:100A30002E4A526902432D4B5A6104E02B4A5269F7
:100A400082432A4B5A61704729B1284A926902436E
:100A5000264B9A6104E0254A92698243234B9A61AE
:100A6000704729B1214AD2690243204BDA6104E080
:100A70001E4AD26982431D4BDA61704729B11B4A75
:100A8000D2680243194BDA6004E0184AD268824304
:100A9000164BDA60704729B1144A12690243134BAE
:100AA0001A6104E0114A12698243104B1A617047BF
:100AB00012494039086070470F49C86470470B49B4
:100AC000C87170470948406A40F080700749486221
:100AD000704701460020054A92680A400AB1012089
:100AE00000E0002070470149887270470010024002
:100AF0000000FFF8FFFFF6FE000042428004424281
:100B000000127A0000093D0014000020240000209B
:100B100010B50446FB48844209D101218803FFF740
:100B2000ADFF00214FF48040FFF7A8FF32E0F64808
:100B3000844209D101214804FFF7ADFF00214FF4A1
:100B40000030FFF7A8FF25E0F048844209D10121D9
:100B50008804FFF7A0FF00214FF48020FFF79BFFE0
:100B600018E0EB48844209D10121C804FFF793FF44
:100B700000214FF40020FFF78EFF0BE0E548844290
:100B800008D101210805FFF786FF00214FF48010EE
:100B9000FFF781FF10BD2DE9F04786B005460E46F0
:100BA0000024A24600BFA1460027B08900B100BFC3
:100BB0002F462C8A4CF6FF700440F08804432C82A8
:100BC000AC894EF6F3100440B0883189084371892E
:100BD00008430443AC81AC8A4FF6FF400440B0891F
:100BE0000443AC8201A8FFF7C2FEC648874202D187
:100BF000DDF810A001E0DDF80CA0A88900F40040A9
:100C000040B10AEBCA0000EB0A1031684900B0FBA2
:100C1000F1F807E00AEBCA0000EB0A10316889001E
:100C2000B0FBF1F86420B8FBF0F004012009642166
:100C300001FB1089A88900F4004040B1322000EB8C
:100C4000C900B0FBF1F000F00700044308E03220D7
:100C500000EB09106421B0FBF1F000F00F00044339
:100C60002C8106B0BDE8F0874FF4165101600021D9
:100C70008180C18001810C214181002181817047E7
:100C800010B502460020108A4FF2FF0318400B886F
:100C90004C8823438C882343CC88234318431082F9
:100CA00010BD0021018041808180C180704721B149
:100CB000828942F40052828104E082894DF6FF73FA
:100CC0001A4082817047F0B50346002400260025B3
:100CD000002040F66A17B94200D100BF1846C1F3A0
:100CE000421401F01F06012707FA06F5012C01D175
:100CF0000C3004E0022C01D1103000E014301AB1A5
:100D000007682F43076002E00768AF430760F0BD44
:100D10001AB1838A0B43838202E0838A8B438382E6
:100D20007047028A4FF6F0731A400282028A0A4321
:100D30000282704782894FF2FF731A408281828952
:100D40000A438281704721B1828942F00202828186
:100D500004E082894FF6FD731A4082817047028A4F
:100D60004FF6DF731A400282028A0A4302827047FA
:100D700021B1028A42F48042028204E0028A4BF6E8
:100D8000FF731A4002827047C1F3080282807047E5
:100D900001468888C0F308007047818941F001014D
:100DA00081817047028BD2B20283028B42EA012218
:100DB00002837047028B02F47F420283028B0A4354
:100DC0000283704721B1828A42F02002828204E0CD
:100DD000828A4FF6DF731A408282704721B1828A7D
:100DE00042F01002828204E0828A4FF6EF731A40CA
:100DF0008282704721B1828A42F00802828204E036
:100E0000828A4FF6F7731A408282704721B1828935
:100E100042F40042828103E08289C2F30E028281A1
:100E2000704721B1828A42F40062828204E0828AA1
:100E30004FF2FF731A4082827047828A4FF6FB732B
:100E40001A408282828A0A438282704721B1828A52
:100E500042F00202828204E0828A4FF6FD731A4059
:100E60008282704702460020B1F5007F00D100BFAA
:100E700013880B400BB1012000E00020704701F403
:100E80000072B2F5007F00D100BFCA4302807047F4
:100E900070B50246002400230025002040F66A16A3
:100EA000B14200D100BFC1F3421501F01F0301267A
:100EB00006FA03F3012D02D19689334006E0022D94
:100EC00002D1168A334001E0968A33400C12012683
:100ED00006FA04F41688344013B10CB1012000E086
:100EE000002070BD10B50022002340F66A14A14214
:100EF00000D100BF0A1201249440A3B2DC43048055
:100F000010BD00000038014000440040004800408F
:100F1000004C00400050004010B56FF00400FFF797
:100F2000CAF92E4800682E49B0FBF1F02D4908702F
:100F30000846007800EB4001C1EBC0104FF6FF718E
:100F400001EAC0002849088010BD0146254A1278F0
:100F50004A434FF0E0235A6100229A611A4612690F
:100F600042F001021A6100BF4FF0E022106900F068
:100F700001021AB100F48032002AF5D04FF0E022CD
:100F8000126922F001024FF0E0231A6100229A61F7
:100F900070470146144A12884A434FF0E0235A61D1
:100FA00000229A611A46126942F001021A6100BFDA
:100FB0004FF0E022106900F001021AB100F4803213
:100FC000002AF5D04FF0E022126922F001024FF022
:100FD000E0231A6100229A6170470000000000209F
:100FE00000127A00280000202A000020014600BFDD
:100FF000704700BF694A128802F04002002AF9D007
:10100000C2B2664B1B1D1A80704710B5C8216448D8
:1010100000F03AFD00206349088010BD10B586B08D
:101020000446012144F20400FFF70EFD4FF4007066
:10103000ADF8140003208DF8160018208DF8170065
:1010400005A95948FFF744FA4FF48060ADF8140041
:1010500004208DF8170005A95348FFF739FA252019
:101060008DF8000003208DF801008DF802000120AA
:101070008DF803006846FFF7D4F801940020ADF81E
:101080000800ADF80A00ADF80C00ADF810000C2017
:10109000ADF80E0001A94148FFF77DFD012240F2A5
:1010A00025513E48FFF70FFE01213C48FFF7FFFDA9
:1010B000FFF7ABFF06B010BD10B540F22551374821
:1010C000FFF7E6FE002839D03448FFF761FEC4B2CE
:1010D000242C02D10020334908803248018800883E
:1010E000401C304A10802E484454007824281ED1D9
:1010F0002B4800794D281AD129484079432816D128
:101100000A2C14D15021294800F0BEFC2548028841
:101110002349264800F073FC0120244981F850003F
:10112000002020490880C8211D4800F0ADFC1D4862
:101130000088C82802DBC8201A49088010BD10B5F5
:1011400004462146164800F048FC08B1012010BDB5
:101150000020FCE710B50020144981F8500081F808
:10116000510081F878005021104800F08DFC0F48A4
:101170005230002101604160018181720B300160B9
:101180004160018181725D38A0F868106A300160A9
:10119000416081606A38A0F8761010BD00380140C7
:1011A000B50000202E000020000801403C00002077
:1011B00008B501210D20FFF747FC0121FE48FFF78C
:1011C00058FA0220ADF8000048208DF803000320F3
:1011D0008DF802006946F948FFF77AF90420ADF866
:1011E000000048208DF8030003208DF802006946B6
:1011F000F248FFF76DF90820ADF8000048208DF89F
:10120000030003208DF802006946EC48FFF760F9FF
:101210001020ADF8000048208DF8030003208DF861
:1012200002006946E548FFF753F91020ADF80000C9
:101230008DF8030003208DF802006946E048FFF7AF
:1012400047F92020ADF8000010208DF8030003209E
:101250008DF802006946DA48FFF73AF94020ADF808
:10126000000010208DF8030003208DF8020069466D
:10127000D348FFF72DF98020ADF8000010208DF83D
:10128000030003208DF802006946CD48FFF720F9DE
:101290001021CB48FFF7CBF92021C948FFF7C7F948
:1012A0004021C748FFF7C3F98021C548FFF7BFF9C0
:1012B0000221C248FFF7B9F90421C048FFF7B5F988
:1012C0000821BE48FFF7B1F91021BC48FFF7ADF97E
:1012D00008BD1CB51E20009000208DF804000C20D5
:1012E0008DF8050000208DF806006846FFF710F81D
:1012F0001CBD1CB51E20009000208DF804000C20A1
:101300008DF8050001208DF806006846FFF700F80B
:101310001CBD0EB5FFF74CFF01210020FFF7EEF9D1
:101320000220019000208DF808000C208DF80900A3
:1013300001208DF80A0001A8FEF7EAFF0221002033
:10134000FFF7DCF90420019001A8FEF7E1FF03217B
:101350000020FFF7D3F90820019001A8FEF7D8FF7D
:1013600004210020FFF7CAF91020019001A8FEF720
:10137000CFFF07208DF8000002208DF80100032028
:101380008DF8020001208DF803006846FEF749FF42
:1013900008208DF8000002208DF801008DF8020071
:1013A00001208DF803006846FEF73BFF09208DF809
:1013B000000002208DF8010001208DF802008DF858
:1013C00003006846FEF72DFF0A208DF8000002207A
:1013D0008DF8010000208DF8020001208DF8030037
:1013E0006846FEF71EFF0EBD10B53220FFF7D1FD97
:1013F0000220FEF7F3FF00287ED0FFF76AFF0221EC
:101400006E48FFF712F910216D48FFF710F92021FF
:101410006B48FFF70AF940216948FFF706F9802178
:101420006748FFF702F902216448FFF7E4F848B97A
:1014300000BF02216148FFF7DEF80028F9D1012042
:101440006049086010215E48FFF7EFF820215C48F2
:10145000FFF7EDF840215A48FFF7E7F88021584898
:10146000FFF7E3F802215548FFF7C5F848B900BF78
:1014700002215248FFF7BFF80028F9D10220514954
:10148000086010214E48FFF7D0F820214C48FFF7A4
:10149000CCF840214A48FFF7CAF880214848FFF7B6
:1014A000C4F802214548FFF7A6F848B900BF022159
:1014B0004248FFF7A0F80028F9D10320414908600D
:1014C00010213F48FFF7B1F820213D48FFF7ADF864
:1014D00040213B48FFF7A9F880213948FFF7A7F8DA
:1014E00002213648FFF787F858B900BF0221334878
:1014F000FFF781F8002800E028E0F7D10420314907
:10150000086010212E48FFF792F820212C48FFF7A1
:101510008EF840212A48FFF78AF880212848FFF7F3
:1015200086F802212548FFF780F804212348FFF7B9
:101530007CF808212148FFF778F810211F48FFF7B1
:1015400074F8FFF7D6FE0220FEF759FF10BD10B564
:101550003220FFF71EFD0420FEF740FF00287DD05B
:10156000FFF7B7FE04211548FFF75FF81021144874
:10157000FFF75DF820211248FFF757F84021104887
:10158000FFF753F880210E48FFF74FF804210B486E
:10159000FFF731F848B900BF04210848FFF72BF8DE
:1015A0000028F9D105200749086010210448FFF7F9
:1015B0003CF82021024807E000023000000801400A
:1015C000000C014038000020FFF731F84021F148BD
:1015D000FFF72BF88021EF48FFF727F80421EE48AA
:1015E000FFF709F848B900BF0421EB48FFF703F8FB
:1015F0000028F9D10620E94908601021E548FFF7E5
:1016000014F82021E348FFF710F84021E148FFF7E4
:101610000EF88021DF48FFF708F80421DE48FEF7C6
:10162000EAFF48B900BF0421DB48FEF7E4FF0028C9
:10163000F9D10720D94908601021D648FEF7F5FFF7
:101640002021D448FEF7F1FF4021D248FEF7EDFFFC
:101650008021D048FEF7EBFF042100E032E0CE48C5
:10166000FEF7C9FF48B900BF0421CB48FEF7C3FF0E
:101670000028F9D10820C94908601021C548FEF7A3
:10168000D6FF2021C348FEF7D2FF4021C148FEF714
:10169000CEFF8021BF48FEF7CAFF0221BE48FEF7F9
:1016A000C4FF0421BC48FEF7C0FF0821BA48FEF77A
:1016B000BCFF1021B848FEF7B8FFFFF71AFE042060
:1016C000FEF79DFE10BD10B53220FFF762FC08202A
:1016D000FEF784FE00287DD0FFF7FBFD0821AE4811
:1016E000FEF7A3FF1021AB48FEF7A1FF2021A94878
:1016F000FEF79BFF4021A748FEF797FF8021A548F2
:10170000FEF793FF0821A448FEF775FF48B900BF14
:101710000821A148FEF76FFF0028F9D109209F4951
:10172000086010219B48FEF780FF20219948FEF7B2
:101730007EFF40219748FEF778FF80219548FEF70D
:1017400074FF08219448FEF756FF48B900BF0821EE
:101750009148FEF750FF0028F9D10A208F49086010
:1017600010218C48FEF761FF20218A48FEF75DFFBB
:1017700040218848FEF75BFF80218648FEF755FF31
:1017800008218548FEF737FF48B900BF0821824885
:10179000FEF731FF0028F9D10B20804908601021A5
:1017A0007C48FEF742FF20217A48FEF73EFF4021A9
:1017B0007848FEF73AFF80217648FEF738FF082187
:1017C0007548FEF718FF58B900BF08217248FEF7A8
:1017D00012FF00E029E00028F7D10C206F490860D3
:1017E00010216C48FEF723FF20216A48FEF71FFFF7
:1017F00040216848FEF71BFF80216648FEF717FF6F
:1018000002216548FEF711FF04216348FEF70DFF32
:1018100008216148FEF709FF10215F48FEF705FF28
:10182000FFF767FD0820FEF7EAFD10BD10B5322076
:10183000FFF7AFFB1020FEF7D1FD00287ED0FFF7A9
:1018400048FD10215448FEF7F0FE10215148FEF7E4
:10185000EEFE20214F48FEF7E8FE40214D48FEF7FE
:10186000E4FE80214B48FEF7E0FE10214A48FEF7D7
:10187000C2FE48B900BF10214748FEF7BCFE002851
:10188000F9D10D204549086010214248FEF7CDFEF0
:1018900020214048FEF7CBFE40213E48FEF7C5FE22
:1018A00080213C48FEF7C1FE10213B48FEF7A3FE15
:1018B00048B900BF10213848FEF79DFE0028F9D135
:1018C0000E203649086010213248FEF7AEFE202176
:1018D0003048FEF7AAFE40212E48FEF7A8FE8021E0
:1018E0002C48FEF7A2FE10212B48FEF784FE48B9D3
:1018F00000BF10212848FEF77EFE0028F9D10F20F6
:101900002649086010212348FEF78FFE2021214838
:10191000FEF78BFE40211F48FEF787FE80211D4801
:10192000FEF785FE10211C48FEF765FE58B900BF82
:1019300010211948FEF75FFE002800E028E0F7D1EB
:1019400010201649086010211248FEF770FE202171
:101950001048FEF76CFE40210E48FEF768FE80211D
:101960000C48FEF764FE02210B48FEF75EFE0421E0
:101970000948FEF75AFE08210748FEF756FE1021D7
:101980000548FEF752FEFFF7B4FC1020FEF737FDC6
:1019900010BD0000000C014000080140380000208C
:1019A00008B501211020FFF74FF84FF40050ADF8B3
:1019B000000010208DF8030003208DF80200694616
:1019C0000448FEF785FD4FF400510248FEF72DFE56
:1019D00008BD000000100140704730B505460B46B9
:1019E0002A4613F8014B12F8010B08B1A042F8D0B7
:1019F0001CB1002802D06D1CF1E7284630BD032A37
:101A000040F2308010F0030C00F0158011F8013B1B
:101A1000BCF1020F624498BF11F801CB00F8013B02
:101A200038BF11F8013BA2F1040298BF00F801CBC6
:101A300038BF00F8013B11F0030300F04B80083A77
:101A4000C0F0088051F8043B083A51F804CBA0E8F4
:101A50000810F5E7121D5CBF51F8043B40F8043B49
:101A6000AFF30080D20724BF11F8013B11F801CB7E
:101A700048BF11F8012B24BF00F8013B00F801CB4F
:101A800048BF00F8012B70474FF000020429C0F056
:101A9000128010F0030C00F05180CCF1040CBCF16A
:101AA000020F18BF00F8012BA8BF20F8022BA1EBF2
:101AB0000C0100F043B85FEAC17C24BF00F8012BA1
:101AC00000F8012B48BF00F8012B704770477047A2
:101AD0007047704710B5203AC0F00B80B1E818503D
:101AE000203AA0E81850B1E81850A0E81850BFF408
:101AF000F5AF5FEA027C24BFB1E81850A0E81850A7
:101B000044BF18C918C0BDE810405FEA827C24BFFA
:101B100051F8043B40F8043B08BF7047D20728BF88
:101B200031F8023B48BF11F8012B28BF20F8023BD7
:101B300048BF00F8012B70474FF0000200B5134674
:101B400094469646203922BFA0E80C50A0E80C50DD
:101B5000B1F12001BFF4F7AF090728BFA0E80C508E
:101B600048BF0CC05DF804EB890028BF40F8042B87
:101B700008BF704748BF20F8022B11F0804F18BFF4
:101B800000F8012B7047754600F02CF8AE460500B2
:101B90006946534620F00700854618B020B5FEF789
:101BA0002BFBBDE820404FF000064FF000074FF040
:101BB00000084FF0000B21F00701AC46ACE8C0096B
:101BC000ACE8C009ACE8C009ACE8C0098D46704774
:101BD00010B50446AFF300802046BDE81040FEF784
:101BE000CCBA000000487047800100200C1C00089F
:101BF000000000203C00000028010008481C0008EC
:101C00003C000020A40700004401000800A24A0490
:101C1000000000000000000001020304060708099C
:101C20000000000001020304010203040607080982
:101C30000204060800000000000000000000000090
:081C400000000000000000009C
:04000005080000ED02
:00000001FF
