:020000040800F2
:10000000500C0020A10200088502000887020008A9
:100010008B0200088F020008930200080000000015
:10002000000000000000000000000000970200082F
:1000300099020008000000009B0200089D020008D1
:10004000B7020008B7020008B7020008B7020008AC
:10005000B7020008B7020008B7020008C91E00086E
:100060002F200008A72100080D230008B702000870
:10007000B7020008B7020008B7020008B70200087C
:10008000B7020008B7020008B7020008B70200086C
:10009000B7020008B7020008B7020008B70200085C
:1000A000B7020008B7020008B7020008B70200084C
:1000B000B7020008B7020008B7020008B70200083C
:1000C000B7020008B7020008B7020008B70200082C
:1000D000B7020008C9150008B7020008B7020008F7
:1000E000B7020008B7020008B702000800F002F8E3
:1000F00000F05CF80AA090E8000C82448344AAF166
:100100000107DA4501D100F051F8AFF2090EBAE863
:100110000F0013F0010F18BFFB1A43F0010318473B
:10012000EC2F00000C3000000A444FF0000C10F8D7
:10013000013B13F0070408BF10F8014B1D1108BF65
:1001400010F8015B641E05D010F8016B641E01F805
:10015000016BF9D113F0080F1EBF10F8014BAD1C55
:100160000C1B09D16D1E58BF01F801CBFAD505E073
:1001700014F8016B01F8016B6D1EF9D59142D6D3CD
:10018000704700000023002400250026103A28BFF5
:1001900078C1FBD8520728BF30C148BF0B607047F9
:1001A0001FB502F096FA1FBD10B510BD02F070FB2E
:1001B0001146FFF7F5FF00F023F802F08EFB03B4C1
:1001C000FFF7F2FF03BC01F099F900000B49D1F8E9
:1001D00000C04A685CF8043B1068184442F8040BFD
:1001E0008C4528BFA1F1DC0C8A4228BFA1F1DC02BA
:1001F000C1F800C04A6020F000407047E8050020C8
:1002000008B501F011F94FF4A06000F065F84FF463
:10021000E13001F08BF902F033F901F0ADFC01F0AF
:1002200041FB01F0E6FD02F0ABF902F021FA1120EA
:100230001149086002F074F91CE00F480068401E84
:100240000E490968884205D100200D49086002F076
:1002500067F902E001200A490860322001F021F923
:100260000820009004480068421E08230221002054
:1002700001F0AEFBE1E70000B8030020BC03002062
:1002800080812142704700BFFEE700BFFEE700BF4C
:10029000FEE700BFFEE770477047704770470000F9
:1002A00008480047FEE7FEE7FEE7FEE7FEE7FEE759
:1002B000FEE7FEE7FEE7FEE703480449044A054B74
:1002C00070470000ED00000850060020500C002090
:1002D000500800205008002031490143314A116084
:1002E000704770B5002100230F22C47804B32D4C51
:1002F000246804F4E064C4F5E064210AC1F1040355
:10030000CA40447804FA03F1847814402143090177
:10031000254C0678A155047804F01F050124AC4053
:1003200005786D11AD0005F1E025C5F8004109E043
:10033000047804F01F050124AC401C4D06787611AA
:1003400045F8264070BD1A4A0A400243154B1B1F50
:100350001A60704739B1134A121D12680243114BDB
:100360001B1D1A6006E00F4A121D126882430D4BD6
:100370001B1D1A607047042808D14FF0E02109695D
:1003800041F004014FF0E022116107E04FF0E0215D
:10039000096921F004014FF0E0221161704700006B
:1003A0000000FA050CED00E000E400E080E100E070
:1003B00080FFFF1F10B50446FA48844208D101218E
:1003C000401500F0E3FD0021601500F0DFFD17E0AF
:1003D000F548844208D10121001500F0D7FD002125
:1003E000201500F0D3FD0BE0F048844208D1012134
:1003F000C80300F0CBFD00214FF4004000F0C6FD23
:1004000010BD30B50246002000235068E84C204063
:100410000D790C6844EA0524204350609068E54C4F
:100420002040D1E902542C434D7944EA450420434D
:100430009060D06A20F470000C7C641EE4B2234308
:1004400040EA0350D06230BD00210160017141716A
:100450008160C16001210174704721B1826842F05E
:100460000102826003E0826822F00102826070472C
:1004700021B1826842F48072826003E0826822F4D3
:1004800080728260704710B50023CBB21AB1446805
:100490001C43446002E044689C43446010BD816892
:1004A00041F0080181607047014600208A6802F02F
:1004B00008020AB1012000E000207047816841F085
:1004C000040181607047014600208A6802F004023E
:1004D0000AB1012000E00020704721B1826842F497
:1004E000A002826003E0826822F4A002826070476A
:1004F000014600208A6802F480020AB1012000E06F
:100500000020704710B50A4600210023416821F4FD
:100510006041531E41EA4331416010BD21B1426840
:1005200042F40062426003E0426822F400624260EA
:100530007047F0B504460D4600200021092D11DD5D
:10054000E068A5F10A0606EB4607072606FA07F15A
:100550008843A5F10A0606EB460603FA06F10843AE
:10056000E0600CE0206905EB4507072606FA07F175
:10057000884305EB450603FA06F108432061072A84
:100580000FDA606B561E06EB86071F2606FA07F188
:100590008843561E06EB860605FA06F1084360639B
:1005A00022E00D2A0FDA206BD61F06EB86071F26E6
:1005B00006FA07F18843D61F06EB860605FA06F110
:1005C0000843206310E0E06AA2F10D0606EB8607FF
:1005D0001F2606FA07F18843A2F10D0606EB8606F0
:1005E00005FA06F10843E062F0BD21B1826842F4E9
:1005F0008012826003E0826822F480128260704779
:100600000146C86C80B2704766484C30006870473D
:1006100021B1426842F48062426003E0426822F401
:1006200080624260704721B1426842F48052426069
:1006300003E0426822F48052426070470A4600217B
:10064000816821F4E04111438160704721B18268E3
:1006500042F40042826003E0826822F40042826039
:10066000704721B1826842F40212826003E082681E
:1006700022F4021282607047014600208A6802F468
:1006800000120AB1012000E000207047F0B50446D6
:100690001546002000220026092911DDE068A1F19D
:1006A0000A0707EB470C072707FA0CF29043A1F162
:1006B0000A0707EB470703FA07F21043E0600CE074
:1006C000206901EB410C072707FA0CF2904301EB7C
:1006D000410703FA07F210432061A06BC0F30156F3
:1006E000EF1C06F1010CA7EB0C0707EB870C1F278B
:1006F00007FA0CF29043EF1C06F1010CA7EB0C0774
:1007000007EB870701FA07F21043A063F0BD10B5AD
:100710000A4600210023816B21F44011531E41EA57
:100720000351816310BD08B5002300930090009B26
:100730000B440093009B1A6008BD08B502460020D8
:100740000090009201F12800009B1844009000984E
:10075000006880B208BD0A4600214168164B194066
:100760001143416070474162826270470A4600212E
:10077000416821F01F0111434160704740B10949B0
:100780000831096841F40001064A0832116007E0A7
:1007900004490831096821F40001024A0832116055
:1007A000704700000024014000280140003C014047
:1007B000FFFEF0FFFDF7F1FFFFFD3FFF02460020C7
:1007C00013680B400BB1012000E000207047CA43C2
:1007D0000260704770B502460020002300240B120F
:1007E0005568CEB205EA060415681D4015B10CB176
:1007F000012000E0002070BD00220A12D3430360F4
:1008000070470000002044490860091D0860091D68
:100810000860091D086041483F491431086070476D
:1008200000213D498279002A3AD00A4612680368BD
:100830009A430B461A600A1D126803689A430B1DFF
:100840001A60027911440A6803681A430A60324A3E
:100850000832126803689A432F4B08331A601A1D36
:10086000126803689A432C4B0C331A604279102AA1
:100870000ED11A1F126803681A43274B08331A60F7
:100880001A1D126803681A43234B0C331A600DE0DB
:100890002149427911440A6803681A430A6005E055
:1008A000027911440A6803689A430A60704700217C
:1008B000016001710C21417100218171704716495D
:1008C000103109680143144A103211607047014623
:1008D0000020114A143212680A400AB1012000E0D7
:1008E000002070470C491431086070470146002011
:1008F0000022094B1B6803EA0102074B14331B68F3
:100900000B4013B10AB1012000E0002070470249FA
:10091000143108607047000000040140FFFF0F0021
:1009200010B50446CC48844208D10121042000F0CF
:100930002DFB0021042000F029FB46E0C74884423B
:1009400008D10121082000F021FB0021082000F03F
:100950001DFB3AE0C248844208D10121102000F07A
:1009600015FB0021102000F011FB2EE0BD48844251
:1009700008D10121202000F009FB0021202000F0F7
:1009800005FB22E0B848844208D10121402000F054
:10099000FDFA0021402000F0F9FA16E0B348844245
:1009A00008D10121802000F0F1FA0021802000F020
:1009B000EDFA0AE0AE48844207D10121801500F02B
:1009C000E5FA0021A01500F0E1FA10BD10B50121F3
:1009D000084600F0DBFA0021012000F0D7FA10BD34
:1009E0002DE9F041024600250026002000230024C6
:1009F000002791F803C00CF00F0591F803C00CF02C
:100A0000100CBCF1000F03D091F802C04CEA0505B0
:100A100091F800C0BCF1000F31D0146800202BE029
:100A20004FF0010C0CFA00F3B1F800C00CEA030619
:100A30009E4220D183004FF00F0C0CFA03F7BC4309
:100A400005FA03FC4CEA040491F803C0BCF1280F3A
:100A500006D14FF0010C0CFA00FCC2F814C00AE0F9
:100A600091F803C0BCF1480F05D14FF0010C0CFA0E
:100A700000FCC2F810C0401C0828D1D31460B1F8A3
:100A800000C0BCF1FF0F34DD546800202EE000F1FF
:100A9000080C4FF0010808FA0CF3B1F800C00CEA9A
:100AA00003069E4221D183004FF00F0C0CFA03F78E
:100AB000BC4305FA03FC4CEA040491F803C0BCF102
:100AC000280F05D100F1080C08FA0CF8C2F81480C0
:100AD00091F803C0BCF1480F07D100F1080C4FF0AA
:100AE000010808FA0CF8C2F81080401C0828CED380
:100AF0005460BDE8F0814FF6FF71018002218170E2
:100B00000421C17070470246002093680B400BB16E
:100B1000012000E0002070470146886880B27047DD
:100B200002460020D3680B400BB1012000E00020FA
:100B300070470146C86880B27047016170474161E3
:100B400070470AB1016100E041617047C1607047C0
:100B50004FF480320A4382618161826182698269D5
:100B6000704702460020434B18684FF680731840C8
:100B700040EA021008433F4B186070473E49C86185
:100B80007047F0B50A46002300240021002500F03C
:100B90000046B6F1004F02D1364EF16901E0354E04
:100BA0007168C0F3034583B200F44016B6F5401FE8
:100BB00008D121F070612F4E766826F070662D4FB7
:100BC0007E6012E000F48016B6F5801F06D1032681
:100BD00006FA05F4A14341F0706106E0460D3601C6
:100BE00003FA06F6B14341F0706122B1460D3601B9
:100BF00003FA06F6314300F00046B6F1004F02D189
:100C00001C4EF16101E01B4E7160F0BD30B5002259
:100C10008B071C0F0F2303FA04F2164B08338C10BA
:100C200053F824309343134C08348D1044F8253086
:100C300023468C1053F824308C07240F00FA04F458
:100C400023430C4C08348D1044F8253030BD0A493C
:100C5000DC3108607047000000080140000C0140D2
:100C6000001001400014014000180140001C014028
:100C7000002001400000014000002042DF480068E1
:100C800040F00100DD49086008464068DC49084042
:100C9000DA49486008460068DA490840D7490860E0
:100CA0000846006820F4802008600846406820F468
:100CB000FE0048604FF41F0088607047CF49096804
:100CC00021F48031CD4A11601146096821F4802158
:100CD0001160B0F5803F03D0B0F5802F0ED106E053
:100CE000C649096841F48031C44A116007E0C3492C
:100CF000096841F4A021C14A116000E000BF00BFB3
:100D0000704710B501460022002300204A11012A35
:100D100002D1BA4C236806E0022A02D1B74C236AFA
:100D200001E0B64C636A01F01F02012494401C40AC
:100D30000CB1012000E0002010BD38B5002000906B
:100D40000024002500BF3120FFF7DBFF0546009897
:100D5000401C00900098B0F5A06F01D0002DF2D09B
:100D60003120FFF7CEFF08B1012400E00024204627
:100D700038BD01460020A14A106820F0F80040EA82
:100D8000C10010607047A04908607047024600200B
:100D90009A4B586820F47C1042EA01031843974BA1
:100DA0005860704798490866704701460020934A8A
:100DB000506820F003000843506070478F48406837
:100DC00000F00C007047014600208C4A506820F06B
:100DD000F00008435060704701460020874A506881
:100DE00020F4E06008435060704701460020834AC9
:100DF000506820F4605040EAC1005060704729B14B
:100E00007E4A527A02437D4B5A7204E07B4A527A00
:100E100082437A4B5A7270477B49D83108607047D9
:100E200001460020754A506820F440400843506055
:100E300070470021714A20321170704A82F82010E8
:100E4000012802D004280AD104E001216B4A203293
:100E5000117005E00521694A2032117000E000BFE1
:100E600000BF70476949086070476449096A0143D7
:100E7000624A11627047654944390860704730B56D
:100E800000210022002400235C4D6D6805F00C0158
:100E900021B1042905D0082923D105E05C4D056066
:100EA00022E05B4D05601FE0544D6D6805F4701243
:100EB000524D6D6805F48034022505EB92421CB951
:100EC000544D554305600BE04C4D6D6805F40035FD
:100ED0001DB1504D5543056002E04D4D5543056031
:100EE00002E04B4D056000BF00BF444D6D6805F04A
:100EF000F0010909484D6B5C0568DD4045603F4DD8
:100F00006D6805F4E061090A434D6B5C4568DD409E
:100F100085603A4D6D6805F46051C90A3E4D6B5CC1
:100F20004568DD40C560354D6D6805F44041890B6D
:100F30003A4D6B5CC568B5FBF3F5056130BD29B171
:100F40002E4A526902432D4B5A6104E02B4A5269E2
:100F500082432A4B5A61704729B1284A9269024359
:100F6000264B9A6104E0254A92698243234B9A6199
:100F7000704729B1214AD2690243204BDA6104E06B
:100F80001E4AD26982431D4BDA61704729B11B4A60
:100F9000D2680243194BDA6004E0184AD2688243EF
:100FA000164BDA60704729B1144A12690243134B99
:100FB0001A6104E0114A12698243104B1A617047AA
:100FC00012494039086070470F49C86470470B499F
:100FD000C87170470948406A40F08070074948620C
:100FE000704701460020054A92680A400AB1012074
:100FF00000E00020704701498872704700100240ED
:101000000000FFF8FFFFF6FE00004242800442426B
:1010100000127A0000093D00140000202400002086
:1010200010B50446FB48844209D101218803FFF72B
:10103000ADFF00214FF48040FFF7A8FF32E0F648F3
:10104000844209D101214804FFF7ADFF00214FF48C
:101050000030FFF7A8FF25E0F048844209D10121C4
:101060008804FFF7A0FF00214FF48020FFF79BFFCB
:1010700018E0EB48844209D10121C804FFF793FF2F
:1010800000214FF40020FFF78EFF0BE0E54884427B
:1010900008D101210805FFF786FF00214FF48010D9
:1010A000FFF781FF10BD2DE9F04786B005460E46DB
:1010B0000024A24600BFA1460027B08900B100BFAE
:1010C0002F462C8A4CF6FF700440F08804432C8293
:1010D000AC894EF6F3100440B08831890843718919
:1010E00008430443AC81AC8A4FF6FF400440B0890A
:1010F0000443AC8201A8FFF7C2FEC648874202D172
:10110000DDF810A001E0DDF80CA0A88900F4004093
:1011100040B10AEBCA0000EB0A1031684900B0FB8D
:10112000F1F807E00AEBCA0000EB0A103168890009
:10113000B0FBF1F86420B8FBF0F004012009642151
:1011400001FB1089A88900F4004040B1322000EB77
:10115000C900B0FBF1F000F00700044308E03220C2
:1011600000EB09106421B0FBF1F000F00F00044324
:101170002C8106B0BDE8F0874FF4165101600021C4
:101180008180C18001810C214181002181817047D2
:1011900010B502460020108A4FF2FF0318400B885A
:1011A0004C8823438C882343CC88234318431082E4
:1011B00010BD0021018041808180C180704721B134
:1011C000828942F40052828104E082894DF6FF73E5
:1011D0001A4082817047F0B503460024002600259E
:1011E000002040F66A17B94200D100BF1846C1F38B
:1011F000421401F01F06012707FA06F5012C01D160
:101200000C3004E0022C01D1103000E014301AB18F
:1012100007682F43076002E00768AF430760F0BD2F
:101220001AB1838A0B43838202E0838A8B438382D1
:101230007047028A4FF6F0731A400282028A0A430C
:101240000282704782894FF2FF731A40828182893D
:101250000A438281704721B1828942F00202828171
:1012600004E082894FF6FD731A4082817047028A3A
:101270004FF6DF731A400282028A0A4302827047E5
:1012800021B1028A42F48042028204E0028A4BF6D3
:10129000FF731A4002827047C1F3080282807047D0
:1012A00001468888C0F308007047818941F0010138
:1012B00081817047028BD2B20283028B42EA012203
:1012C00002837047028B02F47F420283028B0A433F
:1012D0000283704721B1828A42F02002828204E0B8
:1012E000828A4FF6DF731A408282704721B1828A68
:1012F00042F01002828204E0828A4FF6EF731A40B5
:101300008282704721B1828A42F00802828204E020
:10131000828A4FF6F7731A408282704721B1828920
:1013200042F40042828103E08289C2F30E0282818C
:10133000704721B1828A42F40062828204E0828A8C
:101340004FF2FF731A4082827047828A4FF6FB7316
:101350001A408282828A0A438282704721B1828A3D
:1013600042F00202828204E0828A4FF6FD731A4044
:101370008282704702460020B1F5007F00D100BF95
:1013800013880B400BB1012000E00020704701F4EE
:101390000072B2F5007F00D100BFCA4302807047DF
:1013A00070B50246002400230025002040F66A168E
:1013B000B14200D100BFC1F3421501F01F03012665
:1013C00006FA03F3012D02D19689334006E0022D7F
:1013D00002D1168A334001E0968A33400C1201266E
:1013E00006FA04F41688344013B10CB1012000E071
:1013F000002070BD10B50022002340F66A14A142FF
:1014000000D100BF0A1201249440A3B2DC4304803F
:1014100010BD00000038014000440040004800407A
:10142000004C00400050004010B56FF00400FEF783
:10143000A2FF2E4800682E49B0FBF1F02D4908703C
:101440000846007800EB4001C1EBC0104FF6FF7179
:1014500001EAC0002849088010BD0146254A1278DB
:101460004A434FF0E0235A6100229A611A461269FA
:1014700042F001021A6100BF4FF0E022106900F053
:1014800001021AB100F48032002AF5D04FF0E022B8
:10149000126922F001024FF0E0231A6100229A61E2
:1014A00070470146144A12884A434FF0E0235A61BC
:1014B00000229A611A46126942F001021A6100BFC5
:1014C0004FF0E022106900F001021AB100F48032FE
:1014D000002AF5D04FF0E022126922F001024FF00D
:1014E000E0231A6100229A6170470000000000208A
:1014F00000127A00280000202A000020014600BFC8
:10150000704700BF694A128802F04002002AF9D0F1
:10151000C2B2664B1B1D1A80704710B5C8216448C3
:1015200001F037F900206349088010BD10B586B07E
:101530000446012144F20400FFF70EFD4FF4007051
:10154000ADF8140003208DF8160018208DF8170050
:1015500005A95948FFF744FA4FF48060ADF814002C
:1015600004208DF8170005A95348FFF739FA252004
:101570008DF8000003208DF801008DF80200012095
:101580008DF803006846FEF7ACFE01940020ADF82C
:101590000800ADF80A00ADF80C00ADF810000C2002
:1015A000ADF80E0001A94148FFF77DFD012240F290
:1015B00025513E48FFF70FFE01213C48FFF7FFFD94
:1015C000FFF7ABFF06B010BD10B540F2255137480C
:1015D000FFF7E6FE002839D03448FFF761FEC4B2B9
:1015E000242C02D100203349088032480188008829
:1015F000401C304A10802E484454007824281ED1C4
:101600002B4800794D281AD129484079432816D112
:101610000A2C14D15021294801F0BBF82548028832
:101620002349264801F070F80120244981F8500030
:10163000002020490880C8211D4801F0AAF81D4853
:101640000088C82802DBC8201A49088010BD10B5E0
:1016500004462146164801F045F808B1012010BDA6
:101660000020FCE710B50020144981F8500081F8F3
:10167000510081F878005021104801F08AF80F4895
:101680005230002101604160018181720B300160A4
:101690004160018181725D38A0F868106A30016094
:1016A000416081606A38A0F8761010BD00380140B2
:1016B000410400202E00002000080140C803002043
:1016C00010B52021F948FFF738FA8021F748FFF7D5
:1016D00034FA8021F548FFF732FA2021F348FFF76A
:1016E0002EFA10BD10B52021F048FFF726FA802110
:1016F000EE48FFF724FA8021EC48FFF71EFA10BDF0
:1017000010B52021E948FFF718FA2021E748FFF734
:1017100016FA10BD2DE9F04105462C462021E3487C
:10172000FFF70DFA002619E0274607F08007802F03
:1017300004D18021DD48FFF700FA03E08021DB4877
:10174000FFF7FDF96006040E2021D848FFF7F5F9F0
:101750002021D648FFF7F3F9701CC6B2082EE3DB50
:10176000BDE8F08110B50446FFF7AAFF7820FFF727
:10177000D1FFFFF7C5FF0020FFF7CCFFFFF7C0FF49
:101780002046FFF7C7FFFFF7BBFFFFF7ABFF10BD1A
:1017900010B50446FFF794FF7820FFF7BBFFFFF773
:1017A000AFFF4020FFF7B6FFFFF7AAFF2046FFF785
:1017B000B1FFFFF7A5FFFFF795FF10BD70B5044619
:1017C0000D461DB1E0B2FFF7E3FF02E0E0B2FFF724
:1017D000C9FF70BD70B50646002418E004F1B000E2
:1017E0000021FFF7EBFF00210846FFF7E7FF00218C
:1017F0001020FFF7E3FF002505E001213046FFF749
:10180000DDFF681CC5B2802DF7DB601CC4B2082C5C
:10181000E4DB70BD06E041F6650100E0491E0029E9
:10182000FCD1401E0028F6D17047014605E000209B
:1018300001E0421CD0B27B28FBDB0A1EA1F10101B2
:10184000F5D1704770B504460D4605F1B000002192
:10185000FFF7B4FF102141EA14100021FFF7AEFF9B
:1018600004F00F000021FFF7A9FF70BD10B50021A3
:101870008D20FFF7A3FF00211420FFF79FFF002119
:10188000AF20FFF79BFF10BD10B500218D20FFF7A3
:1018900095FF00211020FFF791FF0021AE20FFF7F8
:1018A0008DFF10BD70B5002418E004F1B0000021D8
:1018B000FFF784FF00210846FFF780FF002110207A
:1018C000FFF77CFF002505E001210020FFF776FFF0
:1018D000681CC5B2802DF7DB601CC4B2082CE4DBA9
:1018E00070BD70B5002418E004F1B0000021FFF7CE
:1018F00065FF00210846FFF761FF00211020FFF778
:101900005DFF002505E001210846FFF757FF681C31
:10191000C5B2802DF7DB601CC4B2082CE4DB70BDBF
:101920002DE9F04707460E469046994600250024CB
:10193000A8F12000C5B27F2F02DD0027B01CC6B27F
:10194000B9F1100F24D131463846FFF77BFF002450
:1019500008E004EB0511564A505C0121FFF72EFF09
:10196000601CC4B2082CF4DB701CC1B23846FFF70F
:1019700069FF002409E004EB051108314C4A505C72
:101980000121FFF71BFF601CC4B2082CF3DB12E03F
:1019900031463846FFF756FF00240AE005EB4501C3
:1019A000444A02EB4101085D0121FFF707FF601C7B
:1019B000C4B2062CF2DBBDE8F08710B50246012068
:1019C00000E050430B1EA1F10104E1B2F9D110BDBA
:1019D0002DE9FF5F074691461E460E9D4FF0000A17
:1019E000002435E0301B401EC1B20A20FFF7E5FF9E
:1019F000B9FBF0F00A21B0FBF1F201FB1208BAF1D9
:101A0000000F14D1701EA04211DDB8F1000F0CD1EF
:101A1000AB4605EBDB71491001FB0471C8B22B46E4
:101A200020220199FFF77CFF10E04FF0010AAB463E
:101A300005EBDB71491001FB0471C8B208F13001FC
:101A4000CAB22B460199FFF76BFF00BF601CC4B2FE
:101A5000B442C7DBBDE8FF9F2DE9F04104460F46C5
:101A60001546984600260FE0AA5D434639462046B3
:101A7000FFF756FF04F10800C4B2782C02DD002401
:101A8000B81CC7B2701CC6B2A85D0028ECD1BDE876
:101A9000F0812DE9F04180460E461546002731467B
:101AA0004046FFF7CFFE002411E00000000801408F
:101AB0001C2B0008F4280008734A02EB8511085D0E
:101AC0000121FFF77BFE781CC7B2601CC4B2102C4A
:101AD000F2DB701CC1B24046FFF7B4FE00240CE0FC
:101AE0006900491C684A02EB4111085D0121FFF7BA
:101AF00065FE781CC7B2601CC4B2102CF0DBBDE8D8
:101B0000F0812DE9F05F06460F4690461C46DDF851
:101B100028A04FF0000BE11704EB5171C910A4EBA2
:101B2000C10131B92046E11704EB5171C1F3C7057A
:101B300006E02046E11704EB5171C910491CCDB2F3
:101B40003D4615E029463046FFF77CFEB1460BE0E6
:101B500059460BF1010B1AF801000121FFF72EFE87
:101B600009F1010000F0FF09C145F1DB681CC5B2B5
:101B7000A542E7DBBDE8F09F08B501210420FFF78F
:101B8000EBF9A020ADF8000010208DF80300032031
:101B90008DF8020069463D48FEF722FFA0213B4830
:101BA000FEF7CBFF4FF44870FFF77BFC0021AE201F
:101BB000FFF704FE00210846FFF700FE0021102079
:101BC000FFF7FCFD00214020FFF7F8FD0021B020C9
:101BD000FFF7F4FD00218120FFF7F0FD0021FF2039
:101BE000FFF7ECFD0021A120FFF7E8FD0021A62072
:101BF000FFF7E4FD0021A820FFF7E0FD00213F20D2
:101C0000FFF7DCFD0021C820FFF7D8FD0021D3201D
:101C1000FFF7D4FD00210846FFF7D0FD0021D520B5
:101C2000FFF7CCFD00218020FFF7C8FD0021D82060
:101C3000FFF7C4FD00210520FFF7C0FD0021D920DA
:101C4000FFF7BCFD0021F120FFF7B8FD0021DA20ED
:101C5000FFF7B4FD00211220FFF7B0FD0021DB20CB
:101C6000FFF7ACFD00213020FFF7A8FD00218D20FB
:101C7000FFF7A4FD00211420FFF7A0FD0021AF20F5
:101C8000FFF79CFD08BD0000360000200008014061
:101C900008B501210D20FFF75FF90121FE48FEF78D
:101CA00070FF0220ADF8000048208DF803000320EB
:101CB0008DF802006946F948FEF792FE0420ADF85F
:101CC000000048208DF8030003208DF802006946CB
:101CD000F248FEF785FE0820ADF8000048208DF898
:101CE000030003208DF802006946EC48FEF778FEF9
:101CF0001020ADF8000048208DF8030003208DF877
:101D000002006946E548FEF76BFE1020ADF80000C2
:101D10008DF8030003208DF802006946E048FEF7C5
:101D20005FFE2020ADF8000010208DF80300032096
:101D30008DF802006946DA48FEF752FE4020ADF801
:101D4000000010208DF8030003208DF80200694682
:101D5000D348FEF745FE8020ADF8000010208DF836
:101D6000030003208DF802006946CD48FEF738FED7
:101D70001021CB48FEF7E3FE2021C948FEF7DFFE25
:101D80004021C748FEF7DBFE8021C548FEF7D7FE9D
:101D90000221C248FEF7D1FE0421C048FEF7CDFE65
:101DA0000821BE48FEF7C9FE1021BC48FEF7C5FE5B
:101DB00008BD1CB51E20009000208DF804000C20EA
:101DC0008DF8050000208DF806006846FEF728FD16
:101DD0001CBD1CB51E20009000208DF804000C20B6
:101DE0008DF8050001208DF806006846FEF718FD05
:101DF0001CBD0EB5FFF74CFF01210020FEF706FFCA
:101E00000220019000208DF808000C208DF80900B8
:101E100001208DF80A0001A8FEF702FD0221002032
:101E2000FEF7F4FE0420019001A8FEF7F9FC03215F
:101E30000020FEF7EBFE0820019001A8FEF7F0FC61
:101E400004210020FEF7E2FE1020019001A8FEF719
:101E5000E7FC07208DF8000002208DF80100032028
:101E60008DF8020001208DF803006846FEF739FA6C
:101E700008208DF8000002208DF801008DF8020086
:101E800001208DF803006846FEF72BFA09208DF833
:101E9000000002208DF8010001208DF802008DF86D
:101EA00003006846FEF71DFA0A208DF800000220A4
:101EB0008DF8010000208DF8020001208DF803004C
:101EC0006846FEF70EFA0EBD10B53220FFF7E9FAAC
:101ED0000220FEF70BFD00287ED0FFF76AFF0221EB
:101EE0006E48FEF72AFE10216D48FEF728FE2021DD
:101EF0006B48FEF722FE40216948FEF71EFE802156
:101F00006748FEF71AFE02216448FEF7FCFD48B957
:101F100000BF02216148FEF7F6FD0028F9D101203B
:101F20006049086010215E48FEF707FE20215C48EA
:101F3000FEF705FE40215A48FEF7FFFD8021584874
:101F4000FEF7FBFD02215548FEF7DDFD48B900BF55
:101F500002215248FEF7D7FD0028F9D1022051494D
:101F6000086010214E48FEF7E8FD20214C48FEF79E
:101F7000E4FD40214A48FEF7E2FD80214848FEF793
:101F8000DCFD02214548FEF7BEFD48B900BF022135
:101F90004248FEF7B8FD0028F9D103204149086006
:101FA00010213F48FEF7C9FD20213D48FEF7C5FD41
:101FB00040213B48FEF7C1FD80213948FEF7BFFDB7
:101FC00002213648FEF79FFD58B900BF0221334871
:101FD000FEF799FD002800E028E0F7D10420314900
:101FE000086010212E48FEF7AAFD20212C48FEF79C
:101FF000A6FD40212A48FEF7A2FD80212848FEF7D1
:102000009EFD02212548FEF798FD04212348FEF796
:1020100094FD08212148FEF790FD10211F48FEF78E
:102020008CFDFFF7D6FE0220FEF771FC10BD10B547
:102030003220FFF736FA0420FEF758FC00287DD046
:10204000FFF7B7FE04211548FEF777FD102114486D
:10205000FEF775FD20211248FEF76FFD4021104864
:10206000FEF76BFD80210E48FEF767FD04210B484B
:10207000FEF749FD48B900BF04210848FEF743FDBB
:102080000028F9D105200749086010210448FEF70F
:1020900054FD2021024807E0000230000008014002
:1020A000000C0140B8030020FEF749FD4021F14833
:1020B000FEF743FD8021EF48FEF73FFD0421EE4887
:1020C000FEF721FD48B900BF0421EB48FEF71BFDD8
:1020D0000028F9D10620E94908601021E548FEF7FB
:1020E0002CFD2021E348FEF728FD4021E148FEF7C2
:1020F00026FD8021DF48FEF720FD0421DE48FEF7A3
:1021000002FD48B900BF0421DB48FEF7FCFC0028B3
:10211000F9D10720D94908601021D648FEF70DFDF6
:102120002021D448FEF709FD4021D248FEF705FDE5
:102130008021D048FEF703FD042100E032E0CE48C4
:10214000FEF7E1FC48B900BF0421CB48FEF7DBFCF9
:102150000028F9D10820C94908601021C548FEF7B8
:10216000EEFC2021C348FEF7EAFC4021C148FEF7FF
:10217000E6FC8021BF48FEF7E2FC0221BE48FEF7E4
:10218000DCFC0421BC48FEF7D8FC0821BA48FEF765
:10219000D4FC1021B848FEF7D0FCFFF71AFE04204B
:1021A000FEF7B5FB10BD10B53220FFF77AF9082015
:1021B000FEF79CFB00287DD0FFF7FBFD0821AE4811
:1021C000FEF7BBFC1021AB48FEF7B9FC2021A94863
:1021D000FEF7B3FC4021A748FEF7AFFC8021A548DD
:1021E000FEF7ABFC0821A448FEF78DFC48B900BF00
:1021F0000821A148FEF787FC0028F9D109209F4952
:10220000086010219B48FEF798FC20219948FEF7B2
:1022100096FC40219748FEF790FC80219548FEF7F8
:102220008CFC08219448FEF76EFC48B900BF0821D9
:102230009148FEF768FC0028F9D10A208F49086010
:1022400010218C48FEF779FC20218A48FEF775FCA6
:1022500040218848FEF773FC80218648FEF76DFC1C
:1022600008218548FEF74FFC48B900BF0821824885
:10227000FEF749FC0028F9D10B20804908601021A5
:102280007C48FEF75AFC20217A48FEF756FC402194
:102290007848FEF752FC80217648FEF750FC082172
:1022A0007548FEF730FC58B900BF08217248FEF7A8
:1022B0002AFC00E029E00028F7D10C206F490860D3
:1022C00010216C48FEF73BFC20216A48FEF737FCE2
:1022D00040216848FEF733FC80216648FEF72FFC5A
:1022E00002216548FEF729FC04216348FEF725FC1E
:1022F00008216148FEF721FC10215F48FEF71DFC14
:10230000FFF767FD0820FEF702FB10BD10B5322075
:10231000FFF7C7F81020FEF7E9FA00287ED0FFF794
:1023200048FD10215448FEF708FC10215148FEF7E3
:1023300006FC20214F48FEF700FC40214D48FEF7E7
:10234000FCFB80214B48FEF7F8FB10214A48FEF7C2
:10235000DAFB48B900BF10214748FEF7D4FB00283C
:10236000F9D10D204549086010214248FEF7E5FBF0
:1023700020214048FEF7E3FB40213E48FEF7DDFB0D
:1023800080213C48FEF7D9FB10213B48FEF7BBFB00
:1023900048B900BF10213848FEF7B5FB0028F9D135
:1023A0000E203649086010213248FEF7C6FB202176
:1023B0003048FEF7C2FB40212E48FEF7C0FB8021CB
:1023C0002C48FEF7BAFB10212B48FEF79CFB48B9BE
:1023D00000BF10212848FEF796FB0028F9D10F20F6
:1023E0002649086010212348FEF7A7FB2021214839
:1023F000FEF7A3FB40211F48FEF79FFB80211D48ED
:10240000FEF79DFB10211C48FEF77DFB58B900BF6D
:1024100010211948FEF777FB002800E028E0F7D1EB
:1024200010201649086010211248FEF788FB202171
:102430001048FEF784FB40210E48FEF780FB802108
:102440000C48FEF77CFB02210B48FEF776FB0421CB
:102450000948FEF772FB08210748FEF76EFB1021C2
:102460000548FEF76AFBFFF7B4FC1020FEF74FFAB1
:1024700010BD0000000C014000080140B80300201E
:1024800008B501211420FEF767FD4FF40050ADF8A8
:10249000000010208DF8030003208DF8020069462B
:1024A0003148FEF79DFA4FF400512F48FEF745FBE7
:1024B0004FF48040ADF8000010208DF80300032099
:1024C0008DF8020069462848FEF78AFA4FF48041E9
:1024D0002548FEF732FB4FF40040ADF80000102015
:1024E0008DF8030003208DF8020069461E48FEF7B0
:1024F00077FA4FF400411C48FEF71FFB0120ADF8AE
:10250000000010208DF8030003208DF802006946BA
:102510001648FEF765FA01211448FEF70EFB08BDC8
:1025200010B500F086F8124908600846007800F0FF
:102530000100C0430F4908600D480078C0F3400017
:10254000C0430D49C1F8B80109480078C0F38000C4
:10255000C043C1F8BC0106480078C0F3C000C043C6
:102560000649C1F8800110BD00100140000801407B
:10257000BC030020B401224200002242000021429C
:1025800000B587B001214FF40170FEF7E5FC4FF470
:102590000040FEF745FC4020ADF8040000208DF817
:1025A000070001A92E48FEF71BFA2E48FDF702FF8F
:1025B000002002908DF80C008DF80D004FF4602083
:1025C00004900020059001208DF8180002A92548EC
:1025D000FDF717FF01212348FDF73FFF2148FDF7D5
:1025E0005EFF00BF1F48FDF75FFF0028FAD11D48BE
:1025F000FDF764FF00BF1B48FDF765FF0028FAD117
:1026000007B000BD10B50446072301222146154836
:10261000FDF78FFF01211348FDF75FFF00BF022187
:102620001048FEF7CBF80028F9D00E48FDF7E8FF78
:1026300010BD10B50620FFF7E5FF0B4908600846FE
:10264000006800F031F8FDF7C1FD0F2190FBF1F2B9
:1026500001FB1200054908600846006810BD000033
:102660000008014000240140C4030020C0030020F2
:1026700008B501210820FEF76FFC0120ADF800002D
:1026800010208DF8030003208DF8020069460448ED
:10269000FEF7A6F901210248FEF751FA08BD000035
:1026A000000C0140704700000B4910B5A1F17C02FD
:1026B0000A4CC2E93712372106E000EB104342F81A
:1026C0002130074B00FB03400B1EA1F10101F4DC9C
:1026D00010BD0120E8E7000088050020E119D6665A
:1026E000CD0D010030B505460B462A4613F8014BC7
:1026F00012F8010B08B1A042F8D01CB1002802D09A
:102700006D1CF1E7284630BD032A40F2308010F0FE
:10271000030C00F0158011F8013BBCF1020F62447C
:1027200098BF11F801CB00F8013B38BF11F8013B0D
:10273000A2F1040298BF00F801CB38BF00F8013BBA
:1027400011F0030300F04B80083AC0F0088051F804
:10275000043B083A51F804CBA0E80810F5E7121D35
:102760005CBF51F8043B40F8043BAFF30080D20754
:1027700024BF11F8013B11F801CB48BF11F8012B20
:1027800024BF00F8013B00F801CB48BF00F8012B43
:1027900070474FF000020429C0F0128010F0030CC3
:1027A00000F05180CCF1040CBCF1020F18BF00F80E
:1027B000012BA8BF20F8022BA1EB0C0100F043B8BD
:1027C0005FEAC17C24BF00F8012B00F8012B48BF51
:1027D00000F8012B7047704770477047704710B57D
:1027E000203AC0F00B80B1E81850203AA0E8185009
:1027F000B1E81850A0E81850BFF4F5AF5FEA027CCA
:1028000024BFB1E81850A0E8185044BF18C918C038
:10281000BDE810405FEA827C24BF51F8043B40F8D9
:10282000043B08BF7047D20728BF31F8023B48BFBE
:1028300011F8012B28BF20F8023B48BF00F8012BFC
:1028400070474FF0000200B5134694469646203973
:1028500022BFA0E80C50A0E80C50B1F12001BFF459
:10286000F7AF090728BFA0E80C5048BF0CC05DF8BF
:1028700004EB890028BF40F8042B08BF704748BF0D
:1028800020F8022B11F0804F18BF00F8012B704781
:10289000754600F02BF8AE4605006946534620F019
:1028A0000700854618B020B5FDF706FDBDE82040BD
:1028B0004FF000064FF000074FF000084FF0000BFC
:1028C00021F00701AC46ACE8C009ACE8C009ACE8AF
:1028D000C009ACE8C0098D46704710B50446AFF397
:1028E00000802046BDE81040FDF769BC00487047F5
:1028F000F00500200000000000000000002F000094
:1029000000000700070000147F147F1400242A7FB2
:102910002A12006264081323003649552250000031
:102920000503000000001C224100000041221C00A1
:102930000014083E08140008083E0808000000A023
:10294000600000080808080800006060000000201F
:1029500010080402003E5149453E0000427F4000FD
:10296000004261514946002141454B310018141283
:102970007F10002745454539003C4A494930000150
:102980007109050300364949493600064949291E9F
:102990000000363600000000563600000008142201
:1029A0004100001414141414000041221408000201
:1029B0000151090600324959513E007C1211127C26
:1029C000007F49494936003E41414122007F414153
:1029D000221C007F49494941007F09090901003E45
:1029E0004149497A007F0808087F0000417F410083
:1029F000002040413F01007F08142241007F4040F9
:102A00004040007F020C027F007F0408107F003EE0
:102A10004141413E007F09090906003E4151215EC6
:102A2000007F091929460046494949310001017FC3
:102A30000101003F4040403F001F2040201F003F59
:102A40004038403F0063140814630007087008070B
:102A500000615149454300007F41410000552A551E
:102A60002A55000041417F00000402010204004099
:102A700040404040000001020400002054545478BB
:102A8000007F4844443800384444442000384444DB
:102A9000487F00385454541800087E090102001879
:102AA000A4A4A47C007F080404780000447D4000B6
:102AB000004080847D00007F102844000000417F9A
:102AC0004000007C04180478007C08040478003876
:102AD0004444443800FC242424180018242418FCFE
:102AE000007C0804040800485454542000043F4467
:102AF0004020003C4040207C001C2040201C003C2A
:102B00004030403C004428102844001CA0A0A07C79
:102B1000004464544C4414141414141400000000B1
:102B2000000000000000000000000000000000F8AD
:102B300000000000000000333000000000100C0610
:102B4000100C0600000000000000000040C07840AB
:102B5000C0784000043F04043F040400007088FC77
:102B600008300000001820FF211E0000F008F000CF
:102B7000E018000000211C031E211E0000F0088840
:102B8000700000001E2123241927211010160E00AA
:102B9000000000000000000000000000000000E055
:102BA000180402000000000718204000000204186A
:102BB000E00000000040201807000000404080F0C6
:102BC000804040000202010F01020200000000F0FC
:102BD000000000000101011F0101010000000000D0
:102BE0000000000080B07000000000000000000045
:102BF00000000000000101010101010100000000CE
:102C00000000000000303000000000000000000064
:102C100080601804006018060100000000E0100841
:102C20000810E000000F102020100F00001010F816
:102C3000000000000020203F202000000070080855
:102C400008887000003028242221300000300888D5
:102C5000884830000018202020110E000000C020FD
:102C600010F8000000070424243F240000F808881E
:102C7000880808000019212020110E0000E01088AB
:102C800088180000000F112020110E0000380808DD
:102C9000C83808000000003F0000000000708808ED
:102CA00008887000001C222121221C0000E010086E
:102CB0000810E0000000312222110F00000000C0C7
:102CC000C000000000000030300000000000008064
:102CD0000000000000008060000000000000804054
:102CE000201008000001020408102000404040406D
:102CF00040404000040404040404040000081020C0
:102D00004080000000201008040201000070480804
:102D10000808F0000000003036010000C030C8286C
:102D2000E810E0000718272423140B000000C03827
:102D3000E0000000203C23020227382008F88888A1
:102D400088700000203F202020110E00C0300808AD
:102D500008083800071820202010080008F8080884
:102D60000810E000203F202020100F0008F888887D
:102D7000E8081000203F20202320180008F8888849
:102D8000E8081000203F200003000000C0300808C1
:102D90000838000007182020221E020008F808004A
:102DA0000008F808203F210101213F20000808F811
:102DB000080800000020203F202000000000080834
:102DC000F8080800C08080807F00000008F888C0F4
:102DD00028180800203F20012638200008F80800A5
:102DE00000000000203F20202020300008F8F800DC
:102DF000F8F80800203F003F003F200008F830C0EE
:102E00000008F808203F200007183F00E0100808DD
:102E10000810E0000F10202020100F0008F808080C
:102E20000808F000203F210101010000E01008081F
:102E30000810E0000F18242438504F0008F8888844
:102E400088887000203F2000030C30200070880824
:102E5000080838000038202121221C00180808F832
:102E6000080818000000203F2000000008F80800B3
:102E70000008F808001F202020201F000878880084
:102E800000C83808000007380E010000F80800F8F4
:102E90000008F800033C0700073C0300081868809E
:102EA0008068180820302C03032C30200838C80014
:102EB000C83808000000203F200000001008080863
:102EC000C83808002038262120201800000000FE05
:102ED000020202000000007F40404000000C30C0B1
:102EE00000000000000000010638C00000020202DD
:102EF000FE000000004040407F000000000004028F
:102F000002020400000000000000000000000000B9
:102F100000000000808080808080808000020204A9
:102F200000000000000000000000000000008080A1
:102F3000808000000019242222223F2008F800800F
:102F400080000000003F112020110E0000000080D2
:102F500080800000000E1120202011000000008061
:102F60008088F800000E112020103F200000808093
:102F700080800000001F222222221300008080F0A7
:102F8000888888180020203F2020000000008080D2
:102F900080808000006B94949493600008F8008017
:102FA00080800000203F210000203F200080989872
:102FB000000000000020203F2020000000000080D2
:102FC0009898000000C08080807F000008F8000012
:102FD00080808000203F24022D302000000808F867
:102FE000000000000020203F202000008080808022
:102FF00080808000203F20003F20003F80800080B4
:1030000080800000203F210000203F2000008080C1
:1030100080800000001F202020201F008080008072
:103020008000000080FFA12020110E000000008021
:1030300080808000000E112020A0FF808080800012
:103040008080800020203F2120000100000080803F
:10305000808080000033242424241900008080E034
:10306000808000000000001F202000008080000001
:1030700000808000001F202020103F2080808000E2
:103080000080808000010E300806010080800080F2
:10309000008080800F300C030C300F000080800017
:1030A000808080000020312E0E3120008080800042
:1030B0000080808080818E701806010000808080F2
:1030C000808080000021302C222130000000000090
:1030D000807C020200000000003F40400000000031
:1030E000FF00000000000000FF0000000002027C62
:1030F000800000000040403F000000000006010189
:103100000202040400000000000000002C3100084E
:1031100000000020C803000028010008B0320008A9
:10312000C803002088080000840100081184A24A16
:1031300004680901020304060708090C6910051058
:10314000020406081BF010012AFF050215F01B0FF0
:1031500004012AFF0502130F18094040405F55552E
:103160005575041A5F0C091121080C11200F09492B
:1031700089790909090F201F112FFE02424ACA4A04
:103180000304134202FE000E14FF40504C43404023
:103190004F50505C40FF1BF888012AFF050215F8CC
:1031A0001B1F08012A7F200B109F80E23B808201B9
:1031B000000916E2A2928A86828080041840807FED
:1031C000172424A4FEA3221B22CCAA01141508064E
:1031D00001FF2B0104010511FF0202025808101023
:1031E00010FF109008C3021108080F100444827FDA
:1031F00001808040432C10284681A0180940404897
:103200004848C8784F06051548484040000915034E
:1032100012122222528A063C106080BA19040B1145
:10322000C030FB1E404043407F061C7F42410609E0
:103230004FC02941080B1110D030FF30D0121C10A4
:10324000101F3D080402019E0D1101020408211106
:1032500016FE222222FE0712FE828292A29E1008F1
:1032600080601F0242827F0F11FF402F102C43808D
:1032700011000B1490884C57A42454548C841808C3
:1032800001018042221A07441D423E01018AF9E1F0
:10329000000D14E4242CB4252624B42C24E40418B2
:1032A0000AFF02011E1212121E41860124000000B4
:04000005080000ED02
:00000001FF
